:020000040800F2
:1000000000280020A90F0008B90E0008BF0E000844
:10001000C50E0008CB0E0008D10E0008000000003D
:10002000000000000000000000000000D70E0008E3
:10003000E30E000800000000EF0E0008FB0E0008B1
:10004000F10F0008F10F0008F10F0008F10F000890
:10005000F10F0008F10F0008F10F0008F10F000880
:10006000F10F0008F10F0008F10F0008F10F000870
:10007000F10F0008F10F0008F10F0008F10F000860
:10008000F10F0008F10F0008F10F0008F10F000850
:10009000F10F0008F10F0008F10F0008F10F000840
:1000A000F10F0008F10F0008F10F0008F10F000830
:1000B000090F0008F10F000800000000F10F000810
:1000C000F10F00080000000000000000F10F000820
:1000D00000000000F10F00081D0F000800000000E4
:1000E000F10F0008F10F0008F10F000800000000F8
:1000F0000000000000000000000000000000000000
:0C01000000000000000000005FF808F1A3
:10010C0010B5054C237833B9044B13B10448AFF345
:10011C0000800123237010BDBC00002000000000F3
:10012C00903A000808B5034B1BB103490348AFF3E1
:10013C00008008BD00000000C0000020903A0008BC
:10014C0080B500AFA84B1B68013B062B00F2D68193
:10015C0001A252F823F000BF810100080902000837
:10016C0073020008FB020008770300082D04000846
:10017C00A1040008012000F065FA9C4B1B68012BC0
:10018C0017D19B4B1B68013B994A1360984B1B681A
:10019C001A469849984802F0FBFF03469AB24FF46E
:1001AC007A739549954802F036FB4FF47A7000F05B
:1001BC008DFD8F4B1B68002B06DC914B1B688C4A0A
:1001CC001360894B02221A60002000F0D7FA034614
:1001DC00002B00F09581864B1B681A46894986488E
:1001EC0002F0D6FF03469AB24FF47A7382498348E1
:1001FC0002F011FB7C4B04221A6081E1022000F01A
:10020C0021FA7A4B1B68012B17D1794B1B68013BE8
:10021C00774A1360764B1B681A467B49764802F086
:10022C00B7FF03469AB24FF47A737349734802F0DE
:10023C00F2FA4FF47A7000F049FD6D4B1B68002BFD
:10024C0006D1724B1B686A4A1360674B03221A6013
:10025C00002000F093FA0346002B00F05381624B10
:10026C0004221A604EE1032000F0ECF95F4B1B688E
:10027C00012B17D15E4B1B681A4665495E4802F08C
:10028C0087FF03469AB24FF47A735B495B4802F0DE
:10029C00C2FA574B1B68013B554A13604FF47A70F6
:1002AC0000F014FD524B1B68002B06D1594B1B68F8
:1002BC004F4A13604C4B01221A60002000F05EFA8A
:1002CC000346002B00F02081524B1B681A464D4907
:1002DC00494802F05DFF03469AB24FF47A734649DF
:1002EC00464802F098FA404B04221A600CE10120B7
:1002FC0000F0A8F9012000F041FA0346002B1AD0B7
:10030C00444B1B680133434A1360424B1B681A462B
:10031C003C49394802F03CFF03469AB24FF47A73D9
:10032C003549364802F077FA3A4B1B68092B02DD47
:10033C00384B00221A60002000F020FA0346002BF4
:10034C0000F0E480284B05221A602D4B1B681A46DE
:10035C003149294802F01CFF03469AB24FF47A73D4
:10036C002549264802F057FAD0E0022000F06AF93D
:10037C00012000F003FA0346002B1AD0204B1B6817
:10038C0001331F4A13601E4B1B681A4622491A4838
:10039C0002F0FEFE03469AB24FF47A7316491748E0
:1003AC0002F039FA164B1B68092B02DD144B0022A4
:1003BC001A60002000F0E2F90346002B00F0A88040
:1003CC00124B1B681A4615490B4802F0E1FE034616
:1003DC009AB24FF47A730849084802F01CFA024B9F
:1003EC0006221A6094E000BF1C010020E0040020EB
:1003FC000C010020A83A0008D80000207801002049
:10040C0014010020B43A0008C83A00081801002072
:10041C00D43A000810010020E03A0008F43A000831
:10042C00032000F00FF9012000F0A8F90346002B7F
:10043C001AD03B4B1B680133394A1360384B1B688D
:10044C001A463849384802F0A3FE03469AB24FF4D4
:10045C007A733549354802F0DEF9314B1B68092BAC
:10046C0002DD2F4B00221A60002000F087F90346B2
:10047C00002B4FD02E492C4802F08AFE03469AB22C
:10048C004FF47A732849294802F0C5F9294B072201
:10049C001A603FE0284B1B68184600F0D3F8012087
:1004AC0000F06CF90346002B04D0234B1B6801337E
:1004BC00214A1360204B1B68032B02DD1E4B0122CB
:1004CC001A60002000F05AF90346002B24D01B4B75
:1004DC001B681A461A49144802F05AFE03469AB28F
:1004EC004FF47A731049114802F095F9134B1B68BD
:1004FC00144A13600F4B01221A600DE000BF0CE090
:10050C0000BF0AE000BF08E000BF06E000BF04E047
:10051C0000BF02E000BF00E000BF00BF80BD00BF15
:10052C0018010020F43A0008D800002078010020BF
:10053C00083B00081C0100200000002010010020D6
:10054C00143B00080C01002080B500AF394B1B6830
:10055C000C2B2FD00C2B63DC0A2B02D00B2B40D096
:10056C005EE0002000F0BAF8032000F007F9034623
:10057C00002B57D0304B1B68012B03D12F4B1B6822
:10058C00022B0FDC2C4B1B68042B0BD02A4B1B684B
:10059C00072B0BD12A4B1B68012B03D0284B1B6854
:1005AC00032B03D1234B0C221A603BE0214B0B2273
:1005BC001A6037E0022000F091F81F4B1B68022BE9
:1005CC000BD01D4B1B68052B07D01B4B1B68072B37
:1005DC002AD11B4B1B68022B26D1164B0A221A6000
:1005EC0022E0012000F07AF8134B1B68012B03D199
:1005FC00124B1B68022B0FDC0F4B1B68042B0BD010
:10060C000D4B1B68072B11D10D4B1B68012B03D015
:10061C000B4B1B68032B09D1064B0C221A6005E00F
:10062C0000BF04E000BF02E000BF00E000BF00BF5D
:10063C0080BD00BF040000201C0100200C01002024
:10064C000000002080B582B000AF78607B68032B7F
:10065C003AD801A252F823F0750600088D0600085E
:10066C00A5060008BD06000801224FF48061194858
:10067C0001F06DF801220821174801F068F824E018
:10068C0000224FF48061134801F061F80122082127
:10069C00114801F05CF818E001224FF480610D481C
:1006AC0001F055F8002208210B4801F050F80CE03D
:1006BC0000224FF48061074801F049F8002208211C
:1006CC00054801F044F800E000BF00BF0837BD4604
:1006DC0080BD00BF00080140000C014080B582B015
:1006EC0000AF78607B68032B3ED801A252F823F050
:1006FC000D07000827070008410700085B070008E2
:10070C0001224FF480611B4801F021F801224FF4C3
:10071C008071194801F01BF827E000224FF480612A
:10072C00144801F014F801224FF48071124801F0C2
:10073C000EF81AE001224FF480610E4801F007F820
:10074C0000224FF480710C4801F001F80DE00022FA
:10075C004FF48061074800F0FAFF00224FF48071DB
:10076C00054800F0F4FF00E000BF00BF0837BD46AD
:10077C0080BD00BF000C01400008014080B483B074
:10078C0000AF7860094A7B6852F82330012B06D100
:10079C00064A7B68002142F82310012300E0002365
:1007AC0018460C37BD4680BC704700BF20010020A6
:1007BC0080B582B000AF78607B68032B2ED801A285
:1007CC0052F823F0E1070008F307000805080008B9
:1007DC00170800080221144800F0A2FF03461A462D
:1007EC00124B1A601BE00221114800F099FF0346DE
:1007FC001A460E4B5A6012E001210D4800F090FF92
:10080C0003461A46094B9A6009E00121064800F09C
:10081C0087FF03461A46054BDA6000E000BF00BFB5
:10082C000837BD4680BD00BF0008014028000020ED
:10083C00000C014080B582B000AF00237B605DE00E
:10084C00324A7B6852F8232031497B6841F82320D7
:10085C00304A7B6852F823202C497B6841F82320CE
:10086C007868FFF7A5FF2A4A7B6852F823202749AE
:10087C007B6851F823309A423DD1244A7B6852F868
:10088C00232024497B6851F823309A4233D1224AE1
:10089C007B6852F823201F497B6851F823309A4219
:1008AC0017D01C4A7B6852F823201B497B6841F8FF
:1008BC002320184A7B6852F82330002B1BD1174A8F
:1008CC007B68012142F82310154B4FF496721A6085
:1008DC0011E0134B1B68013B114A1360104B1B6852
:1008EC00002B08D10B4A7B6852F82330002B02D125
:1008FC000B4B64221A607B6801337B607B68032B93
:10090C009EDD00BF00BF0837BD4680BD180000202B
:10091C0008000020280000203800002020010020C2
:10092C004800002080B582B000AF786000F06EF90E
:10093C0000F0E8F900F004FAFFF77CFF00BF08377D
:10094C00BD4680BD80B500AF00F04EFB00F038F81E
:10095C0000F0E8F800F070F800F0BAF8104801F078
:10096C0079FB4FF47A7000F0B1F90E4B05221A6046
:10097C000D4B03221A600D4B02221A600C4B052200
:10098C001A600C4B01221A600B4B01221A600B4BA4
:10099C000A221A60FFF7D8FDFFF7D2FBFAE700BF77
:1009AC00300100201001002014010020180100204B
:1009BC000C0100201C01002000000020040000207D
:1009CC0080B590B000AF07F118032822002118461B
:1009DC0002F0D6FB3B1D00221A605A609A60DA6066
:1009EC001A610223BB610123BB621023FB6200234B
:1009FC007B6307F11803184600F0C2FE0346002B78
:100A0C0001D000F0FDF80F237B600023BB600023B6
:100A1C00FB6000233B6100237B613B1D00211846DA
:100A2C0001F030F90346002B01D000F0E9F800BFCB
:100A3C004037BD4680BD000080B586B000AF07F1E1
:100A4C00080300221A605A609A60DA603B46002262
:100A5C001A605A601D4B4FF080421A601B4B41F6D6
:100A6C003F725A60194B00229A60184B0922DA60C7
:100A7C00164B00221A61154B00229A61134801F0A3
:100A8C0099FA0346002B01D000F0BAF84FF48053CA
:100A9C00BB6007F1080319460C4801F02FFC034614
:100AAC00002B01D000F0ACF800233B6000237B60EE
:100ABC003B461946054801F0F7FD0346002B01D0D3
:100ACC0000F09EF800BF1837BD4680BD30010020F5
:100ADC0080B500AF114B124A1A60104B4FF41652EE
:100AEC005A600E4B00229A600C4B0022DA600B4BC2
:100AFC0000221A61094B0C225A61084B00229A61A0
:100B0C00064B0022DA61054801F038FE0346002B43
:100B1C0001D000F075F800BF80BD00BF7801002047
:100B2C000044004080B586B000AF07F108030022F6
:100B3C001A605A609A60DA602E4B9B692D4A43F01A
:100B4C00040393612B4B9B6903F004037B607B686C
:100B5C00284B9B69274A43F008039361254B9B69FB
:100B6C0003F008033B603B6800224FF4A861224865
:100B7C0000F0EDFD00224FF48761204800F0E7FD06
:100B8C001323BB600023FB6001233B6107F10803C7
:100B9C001946194800F048FC4FF4A863BB600123C8
:100BAC00FB6000233B6102237B6107F108031946BC
:100BBC00114800F039FC0323BB600023FB600123C8
:100BCC003B6107F1080319460C4800F02DFC4FF46B
:100BDC008763BB600123FB6000233B6102237B61C5
:100BEC0007F108031946054800F01EFC00BF183732
:100BFC00BD4680BD0010024000080140000C0140C1
:100C0C0080B400AF72B600BFFEE7000080B483B0C2
:100C1C0000AF00237B6048E02A497A6813469B00AA
:100C2C0013449B000B4404331B68002B13D0254941
:100C3C007A6813469B0013449B000B4404331B68D7
:100C4C00591E20487A6813469B0013449B000344AA
:100C5C000433196026E01B497A6813469B00134441
:100C6C009B000B440833196816487A6813469B009E
:100C7C0013449B0003440433196012497A681346E9
:100C8C009B0013449B000B440C331B780133D8B2EC
:100C9C000C497A6813469B0013449B000B440C339D
:100CAC0002461A707B6801337B60074B1B781A462F
:100CBC007B689342B0DB00BF00BF0C37BD4680BCE5
:100CCC00704700BFBC010020DC04002080B483B05E
:100CDC0000AF78607B68084A82FB03129210DB1726
:100CEC00D31A064A1360064B00221A6000BF0C3759
:100CFC00BD4680BC704700BF67666666E404002092
:100D0C00E004002080B483B000AF78600A4B1B680D
:100D1C00002B0BDD084B1B68013B074A1360064B8D
:100D2C001B68002B02DC054B01221A6000BF0C373C
:100D3C00BD4680BC704700BFE4040020E0040020E6
:100D4C0080B483B000AF78600A4B1B68002B0BDDBE
:100D5C00084B1B68013B074A1360064B1B68002BB2
:100D6C0002DC054B01221A6000BF0C37BD4680BC6B
:100D7C00704700BFEC040020E804002080B483B06E
:100D8C0000AF0E4B9B690D4A43F0010393610B4B73
:100D9C009B6903F001037B607B68084BDB69074AA6
:100DAC0043F08053D361054BDB6903F080533B6008
:100DBC003B6800BF0C37BD4680BC7047001002403A
:100DCC0080B584B000AF78607B681B68B3F1804F4E
:100DDC0013D10C4BDB690B4A43F00103D361094B74
:100DEC00DB6903F00103FB60FB68002200211C207F
:100DFC0000F033FA1C2000F04CFA00BF1037BD464F
:100E0C0080BD00BF0010024080B588B000AF786094
:100E1C0007F1100300221A605A609A60DA607B684E
:100E2C001B681F4A934237D11E4BDB691D4A43F4A2
:100E3C000033D3611B4BDB6903F40033FB60FB68AD
:100E4C00184B9B69174A43F004039361154B9B693C
:100E5C0003F00403BB60BB6804233B6102237B618A
:100E6C000323FB6107F1100319460F4800F0DCFA6D
:100E7C0008233B6100237B610023BB6107F1100356
:100E8C001946094800F0D0FA00220021262000F073
:100E9C00E4F9262000F0FDF900BF2037BD4680BDE7
:100EAC0000440040001002400008014080B400AF34
:100EBC00FEE780B400AFFEE780B400AFFEE780B47D
:100ECC0000AFFEE780B400AFFEE780B400AF00BF18
:100EDC00BD4680BC704780B400AF00BFBD4680BC2F
:100EEC00704780B400AF00BFBD4680BC704780B572
:100EFC0000AF00F0BFF800BF80BD000080B500AFB0
:100F0C00024801F0F3F800BF80BD00BF30010020A3
:100F1C0080B500AF024801F011FD00BF80BD00BFDD
:100F2C007801002080B586B000AF7860144A154B6C
:100F3C00D31A7B617B693B61134B1B68002B02D17D
:100F4C00114B124A1A60104B1A687B6813443A69A9
:100F5C009A4207D202F0EAF803460C221A604FF0CC
:100F6C00FF3309E0084B1B68FB60074B1A687B6872
:100F7C001344054A1360FB6818461837BD4680BDFC
:100F8C000028002000040000F004002008050020C8
:100F9C0080B400AF00BFBD4680BC70470C480D4903
:100FAC000D4A002302E0D458C4500433C4188C42B8
:100FBC00F9D30A4A0A4C002301E013600432A2421E
:100FCC00FBD3FFF7E5FF02F0B7F8FFF7BBFC704768
:100FDC0000000020BC000020883B0008BC00002062
:100FEC0008050020FEE7000080B500AF084B1B6829
:100FFC00074A43F010031360032000F023F90F207D
:10100C0000F008F8FFF7BAFE0023184680BD00BFB9
:10101C000020024080B582B000AF7860124B1A6895
:10102C00124B1B7819464FF47A73B3FBF1F3B2FBF6
:10103C00F3F3184600F03BF90346002B01D00123D3
:10104C000EE07B680F2B0AD8002279684FF0FF3036
:10105C0000F003F9064A7B681360002300E00123CB
:10106C0018460837BD4680BD4C00002054000020B7
:10107C005000002080B400AF054B1B781A46054B7E
:10108C001B681344034A136000BFBD4680BC704705
:10109C0054000020F404002080B400AF024B1B6805
:1010AC001846BD4680BC7047F404002080B485B05F
:1010BC0000AF78607B6803F00703FB600C4BDB68C8
:1010CC00BB60BA684FF6FF031340BB60FB681A02A3
:1010DC00BB68134343F0BF6343F40033BB60044A63
:1010EC00BB68D36000BF1437BD4680BC704700BFDF
:1010FC0000ED00E080B400AF044BDB681B0A03F08A
:10110C0007031846BD4680BC704700BF00ED00E0E9
:10111C0080B483B000AF0346FB7197F90730002B06
:10112C000BDBFB7903F01F02064997F907305B09CB
:10113C00012000FA02F241F8232000BF0C37BD4613
:10114C0080BC704700E100E080B483B000AF034680
:10115C003960FB7197F90730002B0ADB3B68DAB278
:10116C000C4997F907301201D2B20B4483F80023D3
:10117C000AE03B68DAB20849FB7903F00F03043B41
:10118C001201D2B20B441A7600BF0C37BD4680BC9C
:10119C00704700BF00E100E000ED00E080B489B0D2
:1011AC0000AFF860B9607A60FB6803F00703FB617D
:1011BC00FB69C3F10703042B28BF0423BB61FB6944
:1011CC000433062B02D9FB69033B00E000237B614F
:1011DC004FF0FF32BB6902FA03F3DA43BB681A40E3
:1011EC007B699A404FF0FF317B6901FA03F3D943D5
:1011FC007B680B40134318462437BD4680BC7047B0
:10120C0080B582B000AF78607B68013BB3F1807F22
:10121C0001D301230FE00A4A7B68013B53600F2185
:10122C004FF0FF30FFF790FF054B00229A60044B04
:10123C0007221A60002318460837BD4680BD00BF40
:10124C0010E000E080B582B000AF78607868FFF7FE
:10125C002DFF00BF0837BD4680BD80B586B000AFFE
:10126C000346B9607A60FB7300237B61FFF742FF92
:10127C0078617A68B9687869FFF790FF024697F948
:10128C000F3011461846FFF75FFF00BF1837BD46F9
:10129C0080BD80B582B000AF0346FB7197F9073073
:1012AC001846FFF735FF00BF0837BD4680BD80B537
:1012BC0082B000AF78607868FFF7A2FF034618464B
:1012CC000837BD4680BD80B485B000AF7860002380
:1012DC00FB737B6893F82130022B08D07B680422C7
:1012EC009A637B68002283F82020012320E07B682E
:1012FC001B681A687B681B6822F00E021A607B68F8
:10130C001B681A687B681B6822F001021A607B68F4
:10131C001A6C7B68DB6B012101FA02F25A607B6864
:10132C00012283F821207B68002283F82020FB7B9C
:10133C0018461437BD4680BC7047000080B584B099
:10134C0000AF78600023FB737B6893F82130022B8D
:10135C0005D07B6804229A630123FB7351E07B6800
:10136C001B681A687B681B6822F00E021A607B6887
:10137C001B681A687B681B6822F001021A607B6884
:10138C001B68224A934229D07B681B68204A9342EF
:10139C0022D07B681B681F4A93421AD07B681B685B
:1013AC001D4A934212D07B681B681C4A93420AD098
:1013BC007B681B681A4A934202D14FF480130EE0EB
:1013CC004FF080730BE04FF4803308E04FF4805300
:1013DC0005E04FF4807302E0102300E00123114A72
:1013EC0053607B68012283F821207B68002283F8FC
:1013FC0020207B685B6B002B03D07B685B6B786871
:10140C009847FB7B18461037BD4680BD080002404C
:10141C001C000240300002404400024058000240D0
:10142C006C0002400000024080B48BB000AF7860CA
:10143C00396000237B6200233B6261E101227B6AFD
:10144C0002FA03F3FB613B681B68FA691340BB614A
:10145C00BA69FB699A4240F050813B685B68974AD5
:10146C0093425ED0954A934275D8954A934258D090
:10147C00934A93426FD8934A934252D0914A9342E3
:10148C0069D8914A93424CD08F4A934263D88F4A81
:10149C00934246D08D4A93425DD8122B2AD8122BF8
:1014AC0059D801A252F823F02F150008091500088D
:1014BC001B1500085D15000863150008631500086E
:1014CC006315000863150008631500086315000810
:1014DC006315000863150008631500086315000800
:1014EC006315000863150008631500081115000842
:1014FC0025150008764A934213D02CE03B68DB6834
:10150C003B6229E03B68DB6804333B6224E03B68C8
:10151C00DB6808333B621FE03B68DB680C333B62E3
:10152C001AE03B689B68002B02D104233B6213E05A
:10153C003B689B68012B05D108233B627B68FA69E9
:10154C001A6109E008233B627B68FA695A6103E07F
:10155C0000233B6200E000BFBB69FF2B01D87B6816
:10156C0001E07B6804337B61BB69FF2B02D87B6A8B
:10157C009B0002E07B6A083B9B003B617B691A681D
:10158C000F213B6901FA03F3DB431A40396A3B69CB
:10159C0001FA03F31A437B691A603B685B6803F03A
:1015AC008053002B00F0A9804A4B9B69494A43F0B9
:1015BC0001039361474B9B6903F00103BB60BB685C
:1015CC00454A7B6A9B08023352F82330FB607B6AE6
:1015DC0003F003039B000F2202FA03F3DB43FA68C8
:1015EC001340FB607B683D4A93420DD07B683C4ABC
:1015FC00934207D07B683B4A934201D1022304E01B
:10160C00032302E0012300E000237A6A02F00302C4
:10161C0092009340FA681343FB602F497B6A9B0846
:10162C000233FA6841F823203B685B6803F480338B
:10163C00002B06D02C4B1A682B49BB6913430B604B
:10164C0006E0294B1A68BB69DB43274913400B6042
:10165C003B685B6803F40033002B06D0224B5A68BE
:10166C002149BB6913434B6006E01F4B5A68BB69A9
:10167C00DB431D4913404B603B685B6803F48013EC
:10168C00002B06D0184B9A681749BB6913438B6023
:10169C0006E0154B9A68BB69DB43134913408B601A
:1016AC003B685B6803F40013002B1FD00E4BDA6809
:1016BC000D49BB691343CB601FE000BF0000321023
:1016CC000000311000002210000021100000121048
:1016DC000000111000100240000001400008014001
:1016EC00000C014000100140000401400B4BDA6873
:1016FC00BB69DB4309491340CB607B6A01337B62D6
:10170C003B681A687B6A22FA03F3002B7FF496AECF
:10171C0000BF00BF2C37BD4680BC704700040140A1
:10172C0080B485B000AF78600B467B807B689A688C
:10173C007B881340002B02D00123FB7301E00023B4
:10174C00FB73FB7B18461437BD4680BC704780B4D6
:10175C0083B000AF78600B467B8013467B707B7840
:10176C00002B03D07A887B681A6103E07B881A040B
:10177C007B681A6100BF0C37BD4680BC7047000007
:10178C0080B586B000AF78607B68002B01D1012357
:10179C0072E27B681B6803F00103002B00F087806A
:1017AC00924B5B6803F00C03042B0CD08F4B5B68E3
:1017BC0003F00C03082B12D18C4B5B6803F48033C1
:1017CC00B3F5803F0BD1894B1B6803F40033002B1E
:1017DC006CD07B685B68002B68D101234CE27B6882
:1017EC005B68B3F5803F06D1804B1B687F4A43F49E
:1017FC00803313602EE07B685B68002B0CD17B4B35
:10180C001B687A4A23F480331360784B1B68774A41
:10181C0023F4802313601DE07B685B68B3F5A02F75
:10182C000CD1724B1B68714A43F4802313606F4BCD
:10183C001B686E4A43F4803313600BE06B4B1B68E0
:10184C006A4A23F480331360684B1B68674A23F49D
:10185C00802313607B685B68002B13D0FFF71CFCA4
:10186C00386108E0FFF718FC02463B69D31A642B79
:10187C0001D9032300E25D4B1B6803F40033002BFA
:10188C00F0D014E0FFF708FC386108E0FFF704FC27
:10189C0002463B69D31A642B01D90323ECE1534B69
:1018AC001B6803F40033002BF0D100E000BF7B6811
:1018BC001B6803F00203002B63D04C4B5B6803F0F6
:1018CC000C03002B0BD0494B5B6803F00C03082B6B
:1018DC001CD1464B5B6803F48033002B16D1434B71
:1018EC001B6803F00203002B05D07B681B69012BDE
:1018FC0001D00123C0E13D4B1B6823F0F8027B684B
:10190C005B69DB00394913430B603AE07B681B6968
:10191C00002B20D0364B01221A60FFF7BDFB38613B
:10192C0008E0FFF7B9FB02463B69D31A022B01D939
:10193C000323A1E12D4B1B6803F00203002BF0D015
:10194C002A4B1B6823F0F8027B685B69DB00274994
:10195C0013430B6015E0264B00221A60FFF79CFB2B
:10196C00386108E0FFF798FB02463B69D31A022B5B
:10197C0001D9032380E11D4B1B6803F00203002BEC
:10198C00F0D17B681B6803F00803002B3AD07B680E
:10199C009B69002B19D0174B01221A60FFF77CFBB7
:1019AC00386108E0FFF778FB02463B69D31A022B3B
:1019BC0001D9032360E10D4B5B6A03F00203002B9A
:1019CC00F0D0012000F0D8FA1CE00A4B00221A607B
:1019DC00FFF762FB38610FE0FFF75EFB02463B69E5
:1019EC00D31A022B08D9032346E100BF0010024092
:1019FC000000424280044242924B5B6A03F00203B5
:101A0C00002BE9D17B681B6803F00403002B00F06A
:101A1C00A6800023FB758B4BDB6903F08053002BF6
:101A2C000DD1884BDB69874A43F08053D361854BDA
:101A3C00DB6903F08053BB60BB680123FB75824BF1
:101A4C001B6803F48073002B18D17F4B1B687E4AF4
:101A5C0043F480731360FFF71FFB386108E0FFF756
:101A6C001BFB02463B69D31A642B01D9032303E108
:101A7C00754B1B6803F48073002BF0D07B68DB681C
:101A8C00012B06D16F4B1B6A6E4A43F001031362A4
:101A9C002DE07B68DB68002B0CD16A4B1B6A694A12
:101AAC0023F001031362674B1B6A664A23F004039D
:101ABC0013621CE07B68DB68052B0CD1614B1B6A45
:101ACC00604A43F0040313625E4B1B6A5D4A43F0A9
:101ADC00010313620BE05B4B1B6A5A4A23F00103B0
:101AEC001362584B1B6A574A23F0040313627B683A
:101AFC00DB68002B15D0FFF7CFFA38610AE0FFF74F
:101B0C00CBFA02463B69D31A41F28832934201D98F
:101B1C000323B1E04B4B1B6A03F00203002BEED006
:101B2C0014E0FFF7B9FA38610AE0FFF7B5FA02469C
:101B3C003B69D31A41F28832934201D903239BE0CB
:101B4C00404B1B6A03F00203002BEED1FB7D012BF3
:101B5C0005D13C4BDB693B4A23F08053D3617B6856
:101B6C00DB69002B00F08780364B5B6803F00C03BD
:101B7C00082B61D07B68DB69022B46D1334B0022EA
:101B8C001A60FFF789FA386108E0FFF785FA024618
:101B9C003B69D31A022B01D903236DE0294B1B6837
:101BAC0003F00073002BF0D17B681B6AB3F5803F08
:101BBC0008D1244B5B6823F400327B689B68214975
:101BCC0013434B601F4B5B6823F474127B68196AD8
:101BDC007B685B6A0B431B4913434B601B4B012215
:101BEC001A60FFF759FA386108E0FFF755FA024618
:101BFC003B69D31A022B01D903233DE0114B1B681F
:101C0C0003F00073002BF0D035E0104B00221A606B
:101C1C00FFF742FA386108E0FFF73EFA02463B69EB
:101C2C00D31A022B01D9032326E0064B1B6803F0C1
:101C3C000073002BF0D11EE07B68DB69012B07D110
:101C4C00012319E000100240007000406000424285
:101C5C000B4B5B68FB60FB6803F480327B681B6A90
:101C6C009A4206D1FB6803F470127B685B6A9A4255
:101C7C0001D0012300E0002318461837BD4680BD73
:101C8C000010024080B584B000AF786039607B688A
:101C9C00002B01D10123D0E06A4B1B6803F0070332
:101CAC003A689A4210D9674B1B6823F007026549C2
:101CBC003B6813430B60634B1B6803F007033A68E4
:101CCC009A4201D00123B8E07B681B6803F0020341
:101CDC00002B20D07B681B6803F00403002B05D07D
:101CEC00594B5B68584A43F4E06353607B681B684C
:101CFC0003F00803002B05D0534B5B68524A43F4A6
:101D0C0060535360504B5B6823F0F0027B689B6818
:101D1C004D4913434B607B681B6803F00103002B98
:101D2C0040D07B685B68012B07D1474B1B6803F4E1
:101D3C000033002B15D101237FE07B685B68022BFD
:101D4C0007D1414B1B6803F00073002B09D1012311
:101D5C0073E03D4B1B6803F00203002B01D1012300
:101D6C006BE0394B5B6823F003027B685B68364998
:101D7C0013434B60FFF790F9F8600AE0FFF78CF91A
:101D8C000246FB68D31A41F28832934201D90323ED
:101D9C0053E02D4B5B6803F00C027B685B689B0087
:101DAC009A42EBD1274B1B6803F007033A689A421F
:101DBC0010D2244B1B6823F0070222493B681343C3
:101DCC000B60204B1B6803F007033A689A4201D062
:101DDC00012332E07B681B6803F00403002B08D05E
:101DEC00194B5B6823F4E0627B68DB68164913438C
:101DFC004B607B681B6803F00803002B09D0124B67
:101E0C005B6823F460527B681B69DB000E4913434B
:101E1C004B6000F021F802460B4B5B681B0903F08A
:101E2C000F030A49CB5C22FA03F3094A1360094BEE
:101E3C001B681846FFF7EEF8002318461037BD460E
:101E4C0080BD00BF0020024000100240343B00085F
:101E5C004C0000205000002090B48AB000AF294BF9
:101E6C003C1D0FCB84E80F0040F201233B80002384
:101E7C00FB610023BB6100237B6200237B61002399
:101E8C003B62214B5B68FB61FB6903F00C03042B89
:101E9C0002D0082B03D02BE01C4B3B622BE0FB69E0
:101EAC009B0C03F00F0328333B4413F8243C7B6159
:101EBC00FB6903F48033002B12D0134B5B685B0C73
:101ECC0003F0010328333B4413F8283CBB617B69C6
:101EDC000E4A03FB02F2BB69B2FBF3F37B6204E034
:101EEC007B690B4A02FB03F37B627B6A3B6202E079
:101EFC00064B3B6200BF3B6A18462837BD4690BC78
:101F0C00704700BF243B00080010024000127A000A
:101F1C0000093D0080B400AF024B1B681846BD465B
:101F2C0080BC70474C00002080B500AFFFF7F2FF7B
:101F3C000246054B5B681B0A03F007030349CB5CA5
:101F4C0022FA03F3184680BD00100240443B0008FF
:101F5C0080B500AFFFF7DEFF0246054B5B68DB0A7E
:101F6C0003F007030349CB5C22FA03F3184680BD48
:101F7C0000100240443B000880B485B000AF78608C
:101F8C000A4B1B680A4AA2FB03235B0A7A6802FB12
:101F9C0003F3FB6000BFFB685A1EFA60002BF9D1FB
:101FAC0000BF00BF1437BD4680BC70474C000020FA
:101FBC00D34D621080B582B000AF78607B68002B87
:101FCC0001D1012341E07B6893F83D30DBB2002B5B
:101FDC0006D17B68002283F83C207868FEF7F0FE7F
:101FEC007B68022283F83D207B681A687B68043387
:101FFC001946104600F06AFA7B68012283F84620E5
:10200C007B68012283F83E207B68012283F83F2005
:10201C007B68012283F840207B68012283F84120F1
:10202C007B68012283F842207B68012283F84320DD
:10203C007B68012283F844207B68012283F84520C9
:10204C007B68012283F83D20002318460837BD46E3
:10205C0080BD000080B485B000AF78607B6893F8D9
:10206C003D30DBB2012B01D0012335E07B6802222D
:10207C0083F83D207B681B68DA687B681B6842F03C
:10208C000102DA607B681B68164A934209D07B68B0
:10209C001B68B3F1804F04D07B681B68124A9342D3
:1020AC0011D17B681B689B6803F00703FB60FB681E
:1020BC00062B10D07B681B681A687B681B6842F083
:1020CC0001021A6007E07B681B681A687B681B6852
:1020DC0042F001021A60002318461437BD4680BC3A
:1020EC00704700BF002C01400004004080B582B056
:1020FC0000AF78607B681B681B6903F00203022B3E
:10210C0022D17B681B68DB6803F00203022B1BD116
:10211C007B681B686FF002021A617B6801221A77D8
:10212C007B681B689B6903F00303002B03D0786862
:10213C0000F0B1F905E0786800F0A4F9786800F0D7
:10214C00B3F97B6800221A777B681B681B6903F064
:10215C000403042B22D17B681B68DB6803F00403A7
:10216C00042B1BD17B681B686FF004021A617B681F
:10217C0002221A777B681B689B6903F44073002B5F
:10218C0003D0786800F087F905E0786800F07AF9F8
:10219C00786800F089F97B6800221A777B681B68E5
:1021AC001B6903F00803082B22D17B681B68DB68D2
:1021BC0003F00803082B1BD17B681B686FF0080227
:1021CC001A617B6804221A777B681B68DB6903F051
:1021DC000303002B03D0786800F05DF905E0786804
:1021EC0000F050F9786800F05FF97B6800221A77EC
:1021FC007B681B681B6903F01003102B22D17B68D2
:10220C001B68DB6803F01003102B1BD17B681B6869
:10221C006FF010021A617B6808221A777B681B68C2
:10222C00DB6903F44073002B03D0786800F033F9BA
:10223C0005E0786800F026F9786800F035F97B68DD
:10224C0000221A777B681B681B6903F00103012BC2
:10225C000ED17B681B68DB6803F00103012B07D1EF
:10226C007B681B686FF001021A617868FEF75AFBF5
:10227C007B681B681B6903F08003802B0ED17B6885
:10228C001B68DB6803F08003802B07D17B681B681D
:10229C006FF080021A61786800F067FA7B681B683F
:1022AC001B6903F04003402B0ED17B681B68DB6875
:1022BC0003F04003402B07D17B681B686FF0400292
:1022CC001A61786800F0F9F87B681B681B6903F0E9
:1022DC002003202B0ED17B681B68DB6803F02003E6
:1022EC00202B07D17B681B686FF020021A6178687D
:1022FC0000F032FA00BF0837BD4680BD80B584B00F
:10230C0000AF786039607B6893F83C30012B01D1C9
:10231C000223B3E07B68012283F83C207B68022215
:10232C0083F83D207B681B689B68FB60FB6823F08F
:10233C007703FB60FB6823F47F43FB607B681B68BF
:10234C00FA689A603B681B68B3F5005F3ED0B3F542
:10235C00005F00F28780B3F5805F00F08580B3F5F5
:10236C00805F7FD8702B1AD0702B7BD8602B50D00D
:10237C00602B77D8502B3CD0502B73D8402B58D097
:10238C00402B6FD8302B64D0302B6BD8202B60D0E7
:10239C00202B67D8002B5CD0102B5AD062E07B68C6
:1023AC0018683B6899683B685A683B68DB6800F0C2
:1023BC005CF97B681B689B68FB60FB6843F07703E8
:1023CC00FB607B681B68FA689A604EE07B68186853
:1023DC003B6899683B685A683B68DB6800F045F9D4
:1023EC007B681B689A687B681B6842F480429A6021
:1023FC003BE07B6818683B6859683B68DB681A46A9
:10240C0000F0BCF87B681B685021184600F013F9EB
:10241C002BE07B6818683B6859683B68DB681A4698
:10242C0000F0DAF87B681B686021184600F003F9AD
:10243C001BE07B6818683B6859683B68DB681A4688
:10244C0000F09CF87B681B684021184600F0F3F8FC
:10245C000BE07B681A683B681B681946104600F055
:10246C00EAF802E000BF00E000BF7B68012283F8BD
:10247C003D207B68002283F83C200023184610374F
:10248C00BD4680BD80B483B000AF786000BF0C3710
:10249C00BD4680BC704780B483B000AF786000BF8D
:1024AC000C37BD4680BC704780B483B000AF7860F9
:1024BC0000BF0C37BD4680BC704780B483B000AF02
:1024CC00786000BF0C37BD4680BC704780B485B0C7
:1024DC0000AF786039607B681B68FB607B68254ABD
:1024EC00934207D07B68B3F1804F03D07B68224ABC
:1024FC00934208D1FB6823F07003FB603B685B6878
:10250C00FA681343FB607B681A4A934207D07B68D6
:10251C00B3F1804F03D07B68174A934208D1FB6814
:10252C0023F44073FB603B68DB68FA681343FB6081
:10253C00FB6823F080023B685B691343FB607B689C
:10254C00FA681A603B689A687B68DA623B681A68BA
:10255C007B689A627B68074A934203D13B681A698D
:10256C007B681A637B6801225A6100BF1437BD4631
:10257C0080BC7047002C01400004004080B487B040
:10258C0000AFF860B9607A60FB681B6A7B61FB681E
:10259C001B6A23F00102FB681A62FB689B693B61B2
:1025AC003B6923F0F0033B617B681B013A691343E1
:1025BC003B617B6923F00A037B617A69BB68134337
:1025CC007B61FB683A699A61FB687A691A6200BFA1
:1025DC001C37BD4680BC704780B487B000AFF86034
:1025EC00B9607A60FB681B6A23F01002FB681A6200
:1025FC00FB689B697B61FB681B6A3B617B6923F40D
:10260C0070437B617B681B037A6913437B613B6975
:10261C0023F0A0033B61BB681B013A6913433B6188
:10262C00FB687A699A61FB683A691A6200BF1C37C9
:10263C00BD4680BC704780B485B000AF786039600F
:10264C007B689B68FB60FB6823F07003FB603A6857
:10265C00FB68134343F00703FB607B68FA689A60DE
:10266C0000BF1437BD4680BC704780B487B000AF44
:10267C00F860B9607A603B60FB689B687B617B6942
:10268C0023F47F437B613B681A027B681A43BB6867
:10269C0013437A6913437B61FB687A699A6000BFC4
:1026AC001C37BD4680BC704780B485B000AF7860E5
:1026BC0039607B6893F83C30012B01D1022341E057
:1026CC007B68012283F83C207B68022283F83D2042
:1026DC007B681B685B68FB607B681B689B68BB60E6
:1026EC00FB6823F07003FB603B681B68FA681343BC
:1026FC00FB607B681B68FA685A607B681B68144A2D
:10270C00934209D07B681B68B3F1804F04D07B687F
:10271C001B68104A93420CD1BB6823F08003BB604A
:10272C003B685B68BA681343BB607B681B68BA681C
:10273C009A607B68012283F83D207B68002283F835
:10274C003C20002318461437BD4680BC704700BFA0
:10275C00002C01400004004080B483B000AF7860CE
:10276C0000BF0C37BD4680BC704780B483B000AF4F
:10277C00786000BF0C37BD4680BC704780B582B016
:10278C0000AF78607B68002B01D101233FE07B68B0
:10279C0093F83D30DBB2002B06D17B68002283F826
:1027AC003C207868FEF730FB7B68242283F83D20C0
:1027BC007B681B68DA687B681B6822F40052DA605D
:1027CC00786800F025FC7B681B681A697B681B68BD
:1027DC0022F490421A617B681B685A697B681B68FB
:1027EC0022F02A025A617B681B68DA687B681B68D6
:1027FC0042F40052DA607B6800221A647B68202263
:10280C0083F83D207B68202283F83E200023184665
:10281C000837BD4680BD80B58AB002AFF860B9609C
:10282C003B601346FB8000237B61FB6893F83D30D3
:10283C00DBB2202B7CD1BB68002B02D0FB88002B99
:10284C0001D1012375E0FB6893F83C30012B01D1D9
:10285C0002236EE0FB68012283F83C20FB68002217
:10286C001A64FB68212283F83D20FEF715FC786181
:10287C00FB68FA889A84FB68FA88DA84FB689B68A0
:10288C00B3F5805F08D1FB681B69002B04D10023D2
:10289C00FB61BB68BB6103E0BB68FB610023BB61F0
:1028AC00FB68002283F83C202AE03B6800937B699C
:1028BC0000228021F86800F011FA0346002B01D0A9
:1028CC00032336E0FB69002B0BD1BB691B881A462E
:1028DC00FB681B68C2F308025A60BB690233BB6118
:1028EC0007E0FB691A78FB681B685A60FB690133C7
:1028FC00FB61FB68DB8C9BB2013B9AB2FB68DA8410
:10290C00FB68DB8C9BB2002BCFD13B6800937B69BF
:10291C0000224021F86800F0E1F90346002B01D0B9
:10292C00032306E0FB68202283F83D20002300E00F
:10293C00022318462037BD4680BD000080B58AB002
:10294C0000AF78607B681B681B687B627B681B68C8
:10295C00DB683B627B681B685B69FB610023BB61C6
:10296C0000237B617B6A03F00F03BB61BB69002B07
:10297C000DD17B6A03F02003002B08D03B6A03F0D7
:10298C002003002B03D0786800F099FA7BE1BB6937
:10299C00002B00F0B180FB6903F00103002B05D183
:1029AC003B6A03F49073002B00F0A6807B6A03F063
:1029BC000103002B0AD03B6A03F48073002B05D073
:1029CC007B681B6C43F001027B681A647B6A03F022
:1029DC000403002B0AD0FB6903F00103002B05D084
:1029EC007B681B6C43F002027B681A647B6A03F001
:1029FC000203002B0AD0FB6903F00103002B05D066
:102A0C007B681B6C43F004027B681A647B6A03F0DE
:102A1C000803002B0FD03B6A03F02003002B04D1DA
:102A2C00FB6903F00103002B05D07B681B6C43F0A2
:102A3C0008027B681A647B681B6C002B00F01E81FB
:102A4C007B6A03F02003002B07D03B6A03F02003C2
:102A5C00002B02D0786800F032FA7B681B685B6947
:102A6C0003F04003002B14BF01230023DBB27B6176
:102A7C007B681B6C03F00803002B02D17B69002BD5
:102A8C0031D0786800F074F97B681B685B6903F0DF
:102A9C004003002B23D07B681B685A697B681B683A
:102AAC0022F040025A617B689B6B002B13D07B6831
:102ABC009B6B764A5A637B689B6B1846FEF73EFC11
:102ACC000346002B16D07B689B6B5B6B7A68926B12
:102ADC00104698470EE0786800F0ECF80AE0786849
:102AEC0000F0E8F806E0786800F0E4F87B68002273
:102AFC001A64C3E000BFC1E07B681B6B012B40F084
:102B0C00A1807B6A03F01003002B00F09B803B6AD2
:102B1C0003F01003002B00F095800023FB607B6812
:102B2C001B681B68FB607B681B685B68FB60FB6851
:102B3C007B681B685B6903F04003002B4ED07B68FD
:102B4C009B6B1B685B683B823B8A002B00F0988078
:102B5C007B689B8D3A8A9A4280F092807B683A8A95
:102B6C00DA857B689B6B9B69202B2BD07B681B6861
:102B7C00DA687B681B6822F48072DA607B681B68F9
:102B8C005A697B681B6822F001025A617B681B68DA
:102B9C005A697B681B6822F040025A617B682022CC
:102BAC0083F83E207B6800221A637B681B68DA6816
:102BBC007B681B6822F01002DA607B689B6B1846FE
:102BCC00FEF781FB7B689A8D7B68DB8D9BB2D31AF9
:102BDC009BB21946786800F076F851E07B689A8DC4
:102BEC007B68DB8D9BB2D31A7B827B68DB8D9BB2BF
:102BFC00002B47D07B8A002B44D07B681B68DA689B
:102C0C007B681B6822F49072DA607B681B685A69D7
:102C1C007B681B6822F001025A617B68202283F8D2
:102C2C003E207B6800221A637B681B68DA687B682D
:102C3C001B6822F01002DA607B8A1946786800F073
:102C4C0042F81FE07B6A03F08003002B08D03B6A3C
:102C5C0003F08003002B03D0786800F0C9F812E071
:102C6C007B6A03F04003002B0DD03B6A03F040035A
:102C7C00002B08D0786800F00AF904E000BF02E0ED
:102C8C0000BF00E000BF2837BD4680BDD52D000831
:102C9C0080B483B000AF786000BF0C37BD4680BCF9
:102CAC00704780B483B000AF786000BF0C37BD466E
:102CBC0080BC704780B483B000AF786000BF0C3725
:102CCC00BD4680BC704780B483B000AF78600B46C3
:102CDC007B8000BF0C37BD4680BC704780B584B08C
:102CEC0000AFF860B9603B601346FB712CE0BB6928
:102CFC00B3F1FF3F28D0BB69002B07D0FEF7CCF90E
:102D0C0002463B68D31ABA699A421DD2FB681B680B
:102D1C00DA68FB681B6822F4D072DA60FB681B6807
:102D2C005A69FB681B6822F001025A61FB68202279
:102D3C0083F83D20FB68202283F83E20FB680022AC
:102D4C0083F83C2003230FE0FB681B681A68BB6800
:102D5C001340BA689A420CBF01230023DBB21A4617
:102D6C00FB799A42C3D0002318461037BD4680BD6C
:102D7C0080B483B000AF78607B681B68DA687B68CE
:102D8C001B6822F49072DA607B681B685A697B6856
:102D9C001B6822F001025A617B681B6B012B07D167
:102DAC007B681B68DA687B681B6822F01002DA60AB
:102DBC007B68202283F83E207B6800221A6300BFC8
:102DCC000C37BD4680BC704780B584B000AF7860CE
:102DDC007B685B6AFB60FB680022DA85FB6800227B
:102DEC00DA84F868FFF766FF00BF1037BD4680BD78
:102DFC0080B485B000AF78607B6893F83D30DBB26F
:102E0C00212B3ED17B689B68B3F5805F14D17B6826
:102E1C001B69002B10D17B681B6AFB60FB681B884D
:102E2C001A467B681B68C2F308025A607B681B6AEF
:102E3C009A1C7B681A6208E07B681B6A591C7A68CA
:102E4C0011621A787B681B685A607B68DB8C9BB2BA
:102E5C00013B9BB27A681946D184002B0FD17B6859
:102E6C001B68DA687B681B6822F08002DA607B687A
:102E7C001B68DA687B681B6842F04002DA6000234A
:102E8C0000E0022318461437BD4680BC704780B55D
:102E9C0082B000AF78607B681B68DA687B681B685F
:102EAC0022F04002DA607B68202283F83D207868AB
:102EBC00FFF7EEFE002318460837BD4680BD80B5EF
:102ECC0086B000AF78607B6893F83E30DBB2222B83
:102EDC0040F099807B689B68B3F5805F17D17B6865
:102EEC001B69002B13D100237B617B689B6A3B61C0
:102EFC007B681B685B689BB2C3F308039AB23B699F
:102F0C001A807B689B6A9A1C7B689A6226E07B68B5
:102F1C009B6A7B6100233B617B689B68B3F5805F98
:102F2C0007D07B689B68002B0AD17B681B69002B40
:102F3C0006D17B681B685B68DAB27B691A7008E0A3
:102F4C007B681B685B68DBB203F07F03DAB27B69DA
:102F5C001A707B689B6A5A1C7B689A627B68DB8D53
:102F6C009BB2013B9BB27A681946D185002B48D1A4
:102F7C007B681B68DA687B681B6822F02002DA60C9
:102F8C007B681B68DA687B681B6822F48072DA60E5
:102F9C007B681B685A697B681B6822F001025A61C6
:102FAC007B68202283F83E207B681B6B012B23D18E
:102FBC007B6800221A637B681B68DA687B681B6875
:102FCC0022F01002DA607B681B681B6803F01003A8
:102FDC00102B0AD10023FB607B681B681B68FB600D
:102FEC007B681B685B68FB60FB687B689B8D194684
:102FFC007868FFF768FE02E07868FFF752FE00235E
:10300C0002E0002300E0022318461837BD4680BDBD
:10301C0080B584B000AF78607B681B681B6923F4B3
:10302C0040517B68DA687B681B680A431A617B68CD
:10303C009A687B681B691A437B685B691343BB60A6
:10304C007B681B68DB6823F4B05323F00C037A68AD
:10305C001268B9680B43D3607B681B685B6923F407
:10306C0040717B689A697B681B680A435A617B686C
:10307C001B682C4A934203D1FEF76AFFF86002E00A
:10308C00FEF752FFF860FA6813469B0013449A004F
:10309C001A447B685B689B00B2FBF3F3224AA2FBE9
:1030AC0003235B091901FA6813469B0013449A0029
:1030BC001A447B685B689B00B2FBF3F21A4BA3FBD0
:1030CC0002035B09642000FB03F3D31A1B013233A8
:1030DC00154AA2FB03235B0903F0F0031944FA68B9
:1030EC0013469B0013449A001A447B685B689B0050
:1030FC00B2FBF3F20C4BA3FB02035B09642000FB55
:10310C0003F3D31A1B013233074AA2FB03235B09D7
:10311C0003F00F027B681B680A449A6000BF1037EB
:10312C00BD4680BD003801401F85EB51014B18682E
:10313C00704700BF5800002070B500260C4D0D4C98
:10314C00641BA410A64209D100F09CFC00260A4D79
:10315C000A4C641BA410A64205D170BD55F8043B63
:10316C0098470136EEE755F8043B98470136F2E7ED
:10317C00803B0008803B0008803B0008843B000833
:10318C0003460244934200D1704703F8011BF9E750
:10319C000EB46FF0004100B59CB01DAB02900690D0
:1031AC00079104910848094953F8042B05910068CC
:1031BC0002A9019300F068F80022029B1A701CB05F
:1031CC005DF804EB03B07047580000200802FFFFC5
:1031DC002DE9F0478E6882469E420C4690461F466B
:1031EC0038D88A8912F4906F32D025680969013376
:1031FC00A5EB010965694B4405EB450505EBD57558
:10320C006D109D4238BF1D46530531D5294600F03F
:10321C006FFB064650B90C234FF0FF30CAF8003054
:10322C00A38943F04003A381BDE8F0874A46216996
:10323C0000F0CEFAA38923F4906343F08003A381BA
:10324C0026614E4426603E466561A5EB0905A560E6
:10325C00BE4200D93E4632464146206800F0C6FACE
:10326C00A36800209B1BA360236833442360DBE727
:10327C002A4600F0B1FB06460028E1D150462169F0
:10328C0000F0CEFAC7E700002DE9F04F98468B8985
:10329C0007461B060D4614469DB00ED50B6963B947
:1032AC00402100F025FB2860286120B90C233B60ED
:1032BC004FF0FF30D1E040236B61002309932023B2
:1032CC008DF8293030234FF00109CDF80C80DFF850
:1032DC00A4818DF82A3023469A4613F8012B0AB1A3
:1032EC00252AF9D1BAEB040B0BD05B4622462946B2
:1032FC003846FFF76DFF013000F0AA80099A5A4456
:10330C0009929AF80030002B00F0A28000234FF0B5
:10331C00FF32CDE905230AF1010A049307938DF8D6
:10332C0053301A935446052214F8011B514800F0EF
:10333C0041FA049AD8B9D00644BF20238DF85330F3
:10334C00110744BF2B238DF853309AF800302A2BE9
:10335C0015D0544600204FF00A0C079A214611F85C
:10336C00013B303B092B4ED9B0B1079214E0A0EBD6
:10337C00080309FA03F31343A2460493D2E7039B11
:10338C00191D1B680391002BBBBF5B4242F002026C
:10339C0007930793B8BF049223782E2B0CD1637834
:1033AC002A2B35D1039B02341A1D1B680392002B68
:1033BC00B8BF4FF0FF330593DFF8BCA00322504693
:1033CC00217800F0F7F940B14023A0EB0A0003FA92
:1033DC0000F0049B01340343049314F8011B0622F0
:1033EC0026488DF8281000F0E5F9002838D0244B39
:1033FC001BBB039B073323F0070308330393099B81
:10340C003344099367E70C4601200CFB0232A5E715
:10341C0000234FF00A0C194601340593204610F88E
:10342C00012B303A092A03D9002BC5D00591C3E7EB
:10343C00044601230CFB0121F0E703AB00932A4661
:10344C003846104B04A9AFF30080421C0646D6D177
:10345C00AB895B063FF52CAF09981DB0BDE8F08F2A
:10346C0003AB00932A463846064B04A900F07CF8BF
:10347C00EBE700BF4C3B0008523B0008563B0008F2
:10348C0000000000DD3100082DE9F0471646994692
:10349C008A680B6907469342B8BF1346336091F8AC
:1034AC0043200C46DDF820800AB1013333602368D9
:1034BC00990642BF336802333360256815F0060560
:1034CC0006D104F1190AE36832689B1AAB4228DC76
:1034DC0094F84320131E226818BF012392062DD4A2
:1034EC004946384604F14302C047013020D02368D6
:1034FC00E56803F00603042B18BF002532684FF073
:10350C000006A36808BFAD1A226908BF25EAE57555
:10351C009342C4BF9B1AED181A34B5421AD100203D
:10352C0008E00123524649463846C047013003D1D2
:10353C004FF0FF30BDE8F0870135C4E73020E118CB
:10354C0081F843005A1C94F845102244023382F847
:10355C004310C5E70123224649463846C04701308F
:10356C00E6D00136D9E700002DE9FF470F7E9146E2
:10357C00782F80460C469A460C9D01F1430207D8E1
:10358C00622F0AD8002F00F0D980582F00F0A480A9
:10359C0004F1420584F842703AE0A7F16303152B5D
:1035AC00F6D801A151F823F00D3600082136000899
:1035BC009D3500089D3500089D3500089D35000897
:1035CC00213600089D3500089D3500089D35000802
:1035DC009D3500082F3700085136000811370008B8
:1035EC009D3500089D350008513700089D350008B1
:1035FC00513600089D3500089D3500081937000824
:10360C002B681A1D1B682A6004F1420584F84230AD
:10361C000123A4E020682968060601F104030AD5F9
:10362C000E682B60002E03DA2D23764284F843308B
:10363C000A235E4819E00E6810F0400F2B6018BF8B
:10364C0036B2EFE72B682068191D2960010601D5F9
:10365C001E6802E04606FBD51E886F2F0CBF0823A0
:10366C000A235248002184F843106568002DA8BF36
:10367C002168A560A4BF21F0040121600EB9002DC2
:10368C004DD01546B6FBF3F103FB1167C75D05F88A
:10369C00017D3746BB420E46F4D9082B0BD123686B
:1036AC00DE0708D5236961689942DEBF302305F82F
:1036BC00013C05F1FF35521B22614B462146404629
:1036CC00CDF800A003AAFFF7DFFE01304CD14FF07C
:1036DC00FF3004B0BDE8F087344881F845702968A4
:1036EC00236851F8046B29601D0614D5DF0744BF0D
:1036FC0043F0200323601EB9236823F020032360CA
:10370C001023AFE7236843F0200323607823284875
:10371C0084F84530E3E7590648BFB6B2E6E71546EC
:10372C00BBE72B682668181D6169286035061B6885
:10373C0001D5196002E07006FBD5198000231546EF
:10374C002361BAE72B6800211A1D2A601D68626884
:10375C00284600F02FF808B1401B606063682361B5
:10376C00002384F84330A8E72A464946404623699B
:10377C00D0470130ABD023689B0713D4E068039B80
:10378C009842B8BF1846A4E7012332464946404642
:10379C00D04701309BD00135E36803995B1AAB42EB
:1037AC00F2DCEBE7002504F11906F5E75D3B0008B8
:1037BC006E3B0008034610B5C9B20244934218464A
:1037CC0001D1002003E0047801338C42F6D110BD06
:1037DC000A44914200F1FF3300D1704710B511F843
:1037EC00014B914203F8014FF9D110BD884210B53D
:1037FC0001EB020402D98442234607D8431EA1429E
:10380C0008D011F8012B03F8012FF8E70146024408
:10381C008A4200D110BD13F8014D02F8014DF7E7B3
:10382C0038B50546002940D051F8043C0C1F002B3C
:10383C00B8BFE41800F010F91C4A136833B9636080
:10384C0014602846BDE8384000F00CB9A34208D9F2
:10385C00206821188B4201BF19685B680918216028
:10386C00EDE71A465B680BB1A342FAD91168501800
:10387C00A0420BD120680144501883421160E0D162
:10388C0018685B68014411605360DAE702D90C23B5
:10389C002B60D6E7206821188B4201BF19685B6842
:1038AC000918216063605460CBE738BDF804002030
:1038BC0070B50E4E0C463168054611B900F0BCF8D7
:1038CC0030602146284600F0B7F8431C0AD0C41CCF
:1038DC0024F00304A04207D0211A284600F0ACF8CB
:1038EC00013001D14FF0FF34204670BDFC040020A4
:1038FC002DE9F041CD1C25F0030508350C2D38BF02
:10390C000C25002D074601DBA94205D90C23002606
:10391C003B603046BDE8F0812E4E00F09DF83368D8
:10392C001C4634BB29463846FFF7C2FF431C0446ED
:10393C004DD134682646002E40D123683146384696
:10394C0004EB030800F078F880453AD12168033580
:10395C006D1A25F0030508350C2D38BF0C2538469B
:10396C002946FFF7A5FF01302BD023682B44236099
:10397C000EE02268521B1ED40B2A16D96119A342E1
:10398C00256018BF5960636808BF316062514B6095
:10399C00384604F10B0600F065F826F00706231DE7
:1039AC00F21AB6D09B1BA350B3E76268A3420CBFBC
:1039BC0032605A60ECE723466468B2E734467668B6
:1039CC00B9E70C2338463B6000F04CF8A1E72560C2
:1039DC00DEE700BFF80400202DE9F04180461446D4
:1039EC000E4621B91146BDE8F041FFF781BF2AB957
:1039FC00FFF716FF25462846BDE8F08100F038F8A1
:103A0C008442074602D8B4EB500F12D821464046E8
:103A1C00FFF76EFF05460028EDD0BC42224631462A
:103A2C0028BF3A46FFF7D4FE31464046FFF7F8FE72
:103A3C00E1E73546DFE7000038B50023054D0446C5
:103A4C0008462B60FDF76EFA431C02D12B6803B1BC
:103A5C00236038BD00050020014800F011B800BFFC
:103A6C0004050020014800F00CB800BF040500203C
:103A7C0051F8043C181F002BBCBF0B58C0187047E2
:103A8C0070477047F8B500BFF8BC08BC9E4670473D
:0C3A9C00F8B500BFF8BC08BC9E4670479F
:103AA8007265643D25640D0A000000007365747436
:103AB800696E675F7265643D25640D0A0000000049
:103AC800677265656E3D25640D0A000079656C6C4A
:103AD8006F773D25640D0A0073657474696E675FBE
:103AE800677265656E3D25640D0A00007365747420
:103AF800696E675F79656C6C6F773D25640D0A00A8
:103B08006D616E75616C0D0A000000006175746F5F
:103B18005F7265643D25640D0A0000000203040518
:103B2800060708090A0B0C0D0E0F10100000000004
:103B38000000000001020304060708090000000055
:103B480001020304232D302B2000686C4C006566AD
:103B580067454647003031323334353637383941D6
:103B680042434445460030313233343536373839EC
:083B78006162636465660000F0
:043B80003101000807
:043B84000D01000827
:103B8800010000000A000000010000000000000021
:103B9800000000000000000001000000000000001C
:103BA800000000000000000001000000000000000C
:103BB80000000000000000000100000000000000FC
:103BC80000000000000000002C0100000024F400A8
:103BD80010000000010000005C0000200000000050
:103BE80000000000000000000000000000000000CD
:103BF80000000000000000000000000000000000BD
:103C080000000000000000000000000000000000AC
:103C1800000000000000000000000000000000009C
:103C2800000000000000000000000000000000008C
:0C3C380000000000000000000000000080
:0400000508000FA937
:00000001FF
