:020000040800F2
:1000000000280020AD0A0008290A00082F0A00086D
:10001000350A00083B0A0008410A000800000000F9
:10002000000000000000000000000000470A000877
:10003000530A0008000000005F0A00086B0A00086D
:10004000F50A0008F50A0008F50A0008F50A000894
:10005000F50A0008F50A0008F50A0008F50A000884
:10006000F50A0008F50A0008F50A0008F50A000874
:10007000F50A0008F50A0008F50A0008F50A000864
:10008000F50A0008F50A0008F50A0008F50A000854
:10009000F50A0008F50A0008F50A0008F50A000844
:1000A000F50A0008F50A0008F50A0008F50A000834
:1000B000790A0008F50A000800000000F50A0008A7
:1000C000F50A00080000000000000000F50A000822
:1000D00000000000F50A00088D0A0008000000007A
:1000E000F50A0008F50A0008F50A000800000000FB
:1000F0000000000000000000000000000000000000
:0C01000000000000000000005FF808F1A3
:10010C0010B5054C237833B9044B13B10448AFF345
:10011C0000800123237010BD0C00002000000000A3
:10012C00142A000808B5034B1BB103490348AFF36D
:10013C00008008BD0000000010000020142A0008F8
:10014C0080B500AF012000F0D7F8164B1B68002BD0
:10015C0009DC154B1B68134A13600122002113485C
:10016C0000F092FA04E001220021114800F08CFA10
:10017C00104B1B68012B08D10A4B1B68013B094A29
:10018C0013604FF47A7000F077FB012000F000F957
:10019C000346002B04D001220021074800F074FA1A
:1001AC0000BF80BD2800002030000020C9010008DD
:1001BC004D010008F40300209902000880B500AF3F
:1001CC00022000F099F8124B1B68002B09D1114B3F
:1001DC001B680F4A1360012200210F4800F054FAEB
:1001EC0009E00B4B1B68013B094A136001220021FB
:1001FC000A4800F049FA012000F0CAF80346002B27
:10020C0004D001220021064800F03EFA00BF80BD58
:10021C00280000203400002031020008C901000829
:10022C009902000880B500AF032000F065F8124B6E
:10023C001B68002B09D1114B1B680F4A136001225C
:10024C0000210F4800F020FA09E00B4B1B68013B22
:10025C00094A1360012200210A4800F015FA012016
:10026C0000F096F80346002B04D00122002106482A
:10027C0000F00AFA00BF80BD280000202C000020EE
:10028C004D010008310200089902000880B500AF4A
:10029C00012000F031F8022000F07AF80346002B20
:1002AC000BD00F4B1B6801330D4A13600C4B1B68B2
:1002BC00092B02DD0A4B00221A60012000F068F8BD
:1002CC000346002B05D001220021064800F0DCF982
:1002DC0004E001220021044800F0D6F900BF80BDE3
:1002EC002C000020F90200089902000880B400AF2D
:1002FC0000BFBD4680BC704780B582B000AF78604F
:10030C007B68032B3AD801A252F823F0290300088A
:10031C0041030008590300087103000801224FF43F
:10032C008061194800F07EFF01220821174800F077
:10033C0079FF24E000224FF48061134800F072FF33
:10034C0001220821114800F06DFF18E001224FF442
:10035C0080610D4800F066FF002208210B4800F078
:10036C0061FF0CE000224FF48061074800F05AFF57
:10037C0000220821054800F055FF00E000BF00BF37
:10038C000837BD4680BD00BF00080140000C01408D
:10039C0080B483B000AF7860094A7B6852F8233090
:1003AC00012B06D1064A7B68002142F82310012359
:1003BC0000E0002318460C37BD4680BC704700BFD8
:1003CC003800002080B582B000AF786000F0B2F940
:1003DC0000F06EFA00BF0837BD4680BD80B500AF97
:1003EC0000F084FB00F02AF800F0DAF800F062F874
:1003FC0000F0ACF80A2200210B4800F045F94FF44C
:10040C007A7000F039FA094B05221A60084B032266
:10041C001A60084B02221A60044B1B68064A1360D0
:10042C0000F0E8F9FCE700BF4D0100082C000020AB
:10043C0030000020340000202800002080B590B04F
:10044C0000AF07F1180328220021184602F0D4FA55
:10045C003B1D00221A605A609A60DA601A6102230E
:10046C00BB610123BB621023FB6200237B6307F19A
:10047C001803184600F0EEFE0346002B01D000F0E6
:10048C00FDF80F237B600023BB600023FB6000237F
:10049C003B6100237B613B1D0021184601F05CF998
:1004AC000346002B01D000F0E9F800BF4037BD46F1
:1004BC0080BD000080B586B000AF07F108030022B4
:1004CC001A605A609A60DA603B4600221A605A60E1
:1004DC001D4B4FF080421A601B4B41F63F725A6025
:1004EC00194B00229A60184B0922DA60164B002235
:1004FC001A61154B00229A61134801F0C5FA0346A4
:10050C00002B01D000F0BAF84FF48053BB6007F118
:10051C00080319460C4801F00EFC0346002B01D0D1
:10052C0000F0ACF800233B6000237B603B4619468F
:10053C00054801F0D7FD0346002B01D000F09EF8D2
:10054C0000BF1837BD4680BD4400002080B500AF09
:10055C00114B124A1A60104B4FF4E1325A600E4B99
:10056C0000229A600C4B0022DA600B4B00221A61BD
:10057C00094B0C225A61084B00229A61064B00224F
:10058C00DA61054801F018FE0346002B01D000F09B
:10059C0075F800BF80BD00BF8C00002000440040F7
:1005AC0080B586B000AF07F1080300221A605A60CC
:1005BC009A60DA602E4B9B692D4A43F004039361D9
:1005CC002B4B9B6903F004037B607B68284B9B6976
:1005DC00274A43F008039361254B9B6903F00803FA
:1005EC003B603B6800224FF4A861224800F01AFEE1
:1005FC0000224FF48761204800F014FE1323BB60E7
:10060C000023FB6001233B6107F1080319461948DD
:10061C0000F08CFC4FF4A863BB600123FB6000234B
:10062C003B6102237B6107F108031946114800F076
:10063C007DFC0123BB600023FB6001233B6107F1C0
:10064C00080319460C4800F071FC4FF48763BB603B
:10065C000123FB6000233B6102237B6107F108034C
:10066C001946054800F062FC00BF1837BD4680BD36
:10067C000010024000080140000C014080B400AFA3
:10068C0072B600BFFEE7000080B485B000AFF86022
:10069C00B9607A60254B1B78272B42D8234B1B78EB
:1006AC001946234A0B469B000B449B001344FA68E3
:1006BC001A601E4B1B7819461D4A0B469B000B44B7
:1006CC009B0013440433BA681A60184B1B78194604
:1006DC00174A0B469B000B449B00134408337A6863
:1006EC001A60124B1B781946114A0B469B000B449F
:1006FC009B0013440C3300221A700C4B1A780B4BD2
:10070C001B78194610460A4A0B469B000B449B006B
:10071C00134410331860054B1B780133DAB2034BCA
:10072C001A7000BF1437BD4680BC7047F003002020
:10073C00D000002080B483B000AF00237B6048E081
:10074C002A497A6813469B0013449B000B440433DC
:10075C001B68002B13D025497A6813469B00134461
:10076C009B000B4404331B68591E20487A681346BF
:10077C009B0013449B0003440433196026E01B497F
:10078C007A6813469B0013449B000B44083319688A
:10079C0016487A6813469B0013449B0003440433A9
:1007AC00196012497A6813469B0013449B000B4452
:1007BC000C331B780133D8B20C497A6813469B0072
:1007CC0013449B000B440C3302461A707B680133B4
:1007DC007B60074B1B781A467B689342B0DB00BFEB
:1007EC0000BF0C37BD4680BC704700BFD000002056
:1007FC00F003002080B582B000AF00237B602BE0BB
:10080C001B497A6813469B0013449B000B440C3322
:10081C001B78002B1DD016497A6813469B00134495
:10082C009B000B440C331B78013BD8B210497A68FF
:10083C0013469B0013449B000B440C3302461A7066
:10084C000B497A6813469B0013449B000B441B68AE
:10085C0098477B6801337B60064B1B781A467B6894
:10086C009342CDDB00BF00BF0837BD4680BD00BF43
:10087C00D0000020F003002080B483B000AF78607B
:10088C007B68084A82FB03129210DB17D31A064AC4
:10089C001360064B00221A6000BF0C37BD4680BCAB
:1008AC00704700BF67666666F8030020F4030020FB
:1008BC0080B483B000AF78600A4B1B68002B0BDD53
:1008CC00084B1B68013B074A1360064B1B68002B47
:1008DC0002DC054B01221A6000BF0C37BD4680BC00
:1008EC00704700BFF8030020F403002080B483B0ED
:1008FC0000AF0E4B9B690D4A43F0010393610B4B08
:10090C009B6903F001037B607B68084BDB69074A3A
:10091C0043F08053D361054BDB6903F080533B609C
:10092C003B6800BF0C37BD4680BC704700100240CE
:10093C0080B584B000AF78607B681B68B3F1804FE2
:10094C0013D10C4BDB690B4A43F00103D361094B08
:10095C00DB6903F00103FB60FB68002200211C2013
:10096C0000F0FDF91C2000F016FA00BF1037BD4650
:10097C0080BD00BF0010024080B588B000AF786029
:10098C0007F1100300221A605A609A60DA607B68E3
:10099C001B681F4A934237D11E4BDB691D4A43F437
:1009AC000033D3611B4BDB6903F40033FB60FB6842
:1009BC00184B9B69174A43F004039361154B9B69D1
:1009CC0003F00403BB60BB6804233B6102237B611F
:1009DC000323FB6107F1100319460F4800F0A6FA38
:1009EC0008233B6100237B610023BB6107F11003EB
:1009FC001946094800F09AFA00220021262000F03E
:100A0C00AEF9262000F0C7F900BF2037BD4680BDE7
:100A1C0000440040001002400008014080B400AFC8
:100A2C00FEE780B400AFFEE780B400AFFEE780B411
:100A3C0000AFFEE780B400AFFEE780B400AF00BFAC
:100A4C00BD4680BC704780B400AF00BFBD4680BCC3
:100A5C00704780B400AF00BFBD4680BC704780B506
:100A6C0000AF00F089F800BF80BD000080B500AF7A
:100A7C00024801F058F800BF80BD00BF44000020C0
:100A8C0080B500AF024801F0E5FB00BF80BD00BFA0
:100A9C008C00002080B400AF00BFBD4680BC704706
:100AAC000C480D490D4A002302E0D458C4500433BD
:100ABC00C4188C42F9D30A4A0A4C002301E0136093
:100ACC000432A242FBD3FFF7E5FF01F071FFFFF701
:100ADC0085FC7047000000200C0000205C2A0008F8
:100AEC000C00002000040020FEE7000080B500AFE1
:100AFC00084B1B68074A43F010031360032000F0F7
:100B0C0023F90F2000F008F8FFF7F0FE0023184639
:100B1C0080BD00BF0020024080B582B000AF78607D
:100B2C00124B1A68124B1B7819464FF47A73B3FBAD
:100B3C00F1F3B2FBF3F3184600F03BF90346002B3C
:100B4C0001D001230EE07B680F2B0AD800227968B4
:100B5C004FF0FF3000F003F9064A7B681360002366
:100B6C0000E0012318460837BD4680BD0000002078
:100B7C00080000200400002080B400AF054B1B7857
:100B8C001A46054B1B681344034A136000BFBD464D
:100B9C0080BC704708000020FC03002080B400AF2C
:100BAC00024B1B681846BD4680BC7047FC030020F6
:100BBC0080B485B000AF78607B6803F00703FB60FE
:100BCC000C4BDB68BB60BA684FF6FF031340BB608D
:100BDC00FB681A02BB68134343F0BF6343F4003352
:100BEC00BB60044ABB68D36000BF1437BD4680BCF1
:100BFC00704700BF00ED00E080B400AF044BDB6831
:100C0C001B0A03F007031846BD4680BC704700BFA3
:100C1C0000ED00E080B483B000AF0346FB7197F9A0
:100C2C000730002B0BDBFB7903F01F02064997F909
:100C3C0007305B09012000FA02F241F8232000BFC3
:100C4C000C37BD4680BC704700E100E080B483B037
:100C5C0000AF03463960FB7197F90730002B0ADBB4
:100C6C003B68DAB20C4997F907301201D2B20B4447
:100C7C0083F800230AE03B68DAB20849FB7903F0F9
:100C8C000F03043B1201D2B20B441A7600BF0C378F
:100C9C00BD4680BC704700BF00E100E000ED00E005
:100CAC0080B489B000AFF860B9607A60FB6803F07B
:100CBC000703FB61FB69C3F10703042B28BF042363
:100CCC00BB61FB690433062B02D9FB69033B00E0D3
:100CDC0000237B614FF0FF32BB6902FA03F3DA4366
:100CEC00BB681A407B699A404FF0FF317B6901FA6F
:100CFC0003F3D9437B680B40134318462437BD4696
:100D0C0080BC704780B582B000AF78607B68013BD7
:100D1C00B3F1807F01D301230FE00A4A7B68013BCA
:100D2C0053600F214FF0FF30FFF790FF054B00226F
:100D3C009A60044B07221A60002318460837BD46F8
:100D4C0080BD00BF10E000E080B582B000AF7860DD
:100D5C007868FFF72DFF00BF0837BD4680BD80B512
:100D6C0086B000AF0346B9607A60FB7300237B61E9
:100D7C00FFF742FF78617A68B9687869FFF790FFEE
:100D8C00024697F90F3011461846FFF75FFF00BF78
:100D9C001837BD4680BD80B582B000AF0346FB71ED
:100DAC0097F907301846FFF735FF00BF0837BD46E7
:100DBC0080BD80B582B000AF78607868FFF7A2FF85
:100DCC00034618460837BD4680BD80B485B000AFD9
:100DDC0078600023FB737B6893F82130022B08D0DA
:100DEC007B6804229A637B68002283F8202001230D
:100DFC0020E07B681B681A687B681B6822F00E0277
:100E0C001A607B681B681A687B681B6822F00102F9
:100E1C001A607B681A6C7B68DB6B012101FA02F2A9
:100E2C005A607B68012283F821207B68002283F8BA
:100E3C002020FB7B18461437BD4680BC7047000051
:100E4C0080B584B000AF78600023FB737B6893F8A7
:100E5C002130022B05D07B6804229A630123FB739B
:100E6C0051E07B681B681A687B681B6822F00E02D5
:100E7C001A607B681B681A687B681B6822F0010289
:100E8C001A607B681B68224A934229D07B681B68D6
:100E9C00204A934222D07B681B681F4A93421AD087
:100EAC007B681B681D4A934212D07B681B681C4AE6
:100EBC0093420AD07B681B681A4A934202D14FF4C2
:100ECC0080130EE04FF080730BE04FF4803308E09A
:100EDC004FF4805305E04FF4807302E0102300E0E0
:100EEC000123114A53607B68012283F821207B681F
:100EFC00002283F820207B685B6B002B03D07B687F
:100F0C005B6B78689847FB7B18461037BD4680BDF5
:100F1C00080002401C000240300002404400024025
:100F2C00580002406C0002400000024080B48BB0BC
:100F3C0000AF7860396000237B6200233B6261E183
:100F4C0001227B6A02FA03F3FB613B681B68FA69B6
:100F5C001340BB61BA69FB699A4240F050813B680F
:100F6C005B68974A93425ED0954A934275D8954AEE
:100F7C00934258D0934A93426FD8934A934252D09B
:100F8C00914A934269D8914A93424CD08F4A9342EA
:100F9C0063D88F4A934246D08D4A93425DD8122B28
:100FAC002AD8122B59D801A252F823F0331000087A
:100FBC000D1000081F1000086110000867100008D1
:100FCC006710000867100008671000086710000819
:100FDC006710000867100008671000086710000809
:100FEC0067100008671000086710000867100008F9
:100FFC001510000829100008764A934213D02CE0F3
:10100C003B68DB683B6229E03B68DB6804333B628E
:10101C0024E03B68DB6808333B621FE03B68DB681D
:10102C000C333B621AE03B689B68002B02D1042313
:10103C003B6213E03B689B68012B05D108233B62A4
:10104C007B68FA691A6109E008233B627B68FA69DC
:10105C005A6103E000233B6200E000BFBB69FF2B39
:10106C0001D87B6801E07B6804337B61BB69FF2B93
:10107C0002D87B6A9B0002E07B6A083B9B003B61C9
:10108C007B691A680F213B6901FA03F3DB431A40B1
:10109C00396A3B6901FA03F31A437B691A603B68AE
:1010AC005B6803F08053002B00F0A9804A4B9B69CE
:1010BC00494A43F001039361474B9B6903F00103D9
:1010CC00BB60BB68454A7B6A9B08023352F82330ED
:1010DC00FB607B6A03F003039B000F2202FA03F30D
:1010EC00DB43FA681340FB607B683D4A93420DD0AA
:1010FC007B683C4A934207D07B683B4A934201D1C0
:10110C00022304E0032302E0012300E000237A6AB7
:10111C0002F0030292009340FA681343FB602F49DC
:10112C007B6A9B080233FA6841F823203B685B68B2
:10113C0003F48033002B06D02C4B1A682B49BB6967
:10114C0013430B6006E0294B1A68BB69DB43274944
:10115C0013400B603B685B6803F40033002B06D034
:10116C00224B5A682149BB6913434B6006E01F4B65
:10117C005A68BB69DB431D4913404B603B685B6895
:10118C0003F48013002B06D0184B9A681749BB69DF
:10119C0013438B6006E0154B9A68BB69DB4313491C
:1011AC0013408B603B685B6803F40013002B1FD06B
:1011BC000E4BDA680D49BB691343CB601FE000BFCF
:1011CC00000032100000311000002210000021102D
:1011DC00000012100000111000100240000001402D
:1011EC0000080140000C01400010014000040140C7
:1011FC000B4BDA68BB69DB4309491340CB607B6A54
:10120C0001337B623B681A687B6A22FA03F3002B7A
:10121C007FF496AE00BF00BF2C37BD4680BC704734
:10122C000004014080B483B000AF78600B467B8033
:10123C0013467B707B78002B03D07A887B681A610D
:10124C0003E07B881A047B681A6100BF0C37BD462B
:10125C0080BC704780B586B000AF78607B68002B8F
:10126C0001D1012372E27B681B6803F00103002BA0
:10127C0000F08780924B5B6803F00C03042B0CD0BE
:10128C008F4B5B6803F00C03082B12D18C4B5B6803
:10129C0003F48033B3F5803F0BD1894B1B6803F407
:1012AC000033002B6CD07B685B68002B68D101236A
:1012BC004CE27B685B68B3F5803F06D1804B1B68C2
:1012CC007F4A43F4803313602EE07B685B68002B0D
:1012DC000CD17B4B1B687A4A23F480331360784B18
:1012EC001B68774A23F4802313601DE07B685B68DE
:1012FC00B3F5A02F0CD1724B1B68714A43F48023B9
:10130C0013606F4B1B686E4A43F4803313600BE021
:10131C006B4B1B686A4A23F480331360684B1B6861
:10132C00674A23F4802313607B685B68002B13D01F
:10133C00FFF734FC386108E0FFF730FC02463B69EC
:10134C00D31A642B01D9032300E25D4B1B6803F411
:10135C000033002BF0D014E0FFF720FC386108E0DC
:10136C00FFF71CFC02463B69D31A642B01D90323FB
:10137C00ECE1534B1B6803F40033002BF0D100E07D
:10138C0000BF7B681B6803F00203002B63D04C4B3F
:10139C005B6803F00C03002B0BD0494B5B6803F02C
:1013AC000C03082B1CD1464B5B6803F48033002BD9
:1013BC0016D1434B1B6803F00203002B05D07B684E
:1013CC001B69012B01D00123C0E13D4B1B6823F0AD
:1013DC00F8027B685B69DB00394913430B603AE028
:1013EC007B681B69002B20D0364B01221A60FFF75B
:1013FC00D5FB386108E0FFF7D1FB02463B69D31AF5
:10140C00022B01D90323A1E12D4B1B6803F002032E
:10141C00002BF0D02A4B1B6823F0F8027B685B6929
:10142C00DB00274913430B6015E0264B00221A60A2
:10143C00FFF7B4FB386108E0FFF7B0FB02463B69ED
:10144C00D31A022B01D9032380E11D4B1B6803F037
:10145C000203002BF0D17B681B6803F00803002B00
:10146C003AD07B689B69002B19D0174B01221A606C
:10147C00FFF794FB386108E0FFF790FB02463B69ED
:10148C00D31A022B01D9032360E10D4B5B6A03F0E5
:10149C000203002BF0D0012000F0D8FA1CE00A4B1C
:1014AC0000221A60FFF77AFB38610FE0FFF776FB3A
:1014BC0002463B69D31A022B08D9032346E100BF2D
:1014CC00001002400000424280044242924B5B6A90
:1014DC0003F00203002BE9D17B681B6803F00403C3
:1014EC00002B00F0A6800023FB758B4BDB6903F00F
:1014FC008053002B0DD1884BDB69874A43F0805316
:10150C00D361854BDB6903F08053BB60BB6801235F
:10151C00FB75824B1B6803F48073002B18D17F4B37
:10152C001B687E4A43F480731360FFF737FB386106
:10153C0008E0FFF733FB02463B69D31A642B01D951
:10154C00032303E1754B1B6803F48073002BF0D06D
:10155C007B68DB68012B06D16F4B1B6A6E4A43F02C
:10156C00010313622DE07B68DB68002B0CD16A4B06
:10157C001B6A694A23F001031362674B1B6A664AB4
:10158C0023F0040313621CE07B68DB68052B0CD191
:10159C00614B1B6A604A43F0040313625E4B1B6A87
:1015AC005D4A43F0010313620BE05B4B1B6A5A4A22
:1015BC0023F001031362584B1B6A574A23F00403B0
:1015CC0013627B68DB68002B15D0FFF7E7FA3861F4
:1015DC000AE0FFF7E3FA02463B69D31A41F288327C
:1015EC00934201D90323B1E04B4B1B6A03F0020376
:1015FC00002BEED014E0FFF7D1FA38610AE0FFF7C8
:10160C00CDFA02463B69D31A41F28832934201D992
:10161C0003239BE0404B1B6A03F00203002BEED12B
:10162C00FB7D012B05D13C4BDB693B4A23F08053FE
:10163C00D3617B68DB69002B00F08780364B5B68DD
:10164C0003F00C03082B61D07B68DB69022B46D1BD
:10165C00334B00221A60FFF7A1FA386108E0FFF75C
:10166C009DFA02463B69D31A022B01D903236DE084
:10167C00294B1B6803F00073002BF0D17B681B6AAD
:10168C00B3F5803F08D1244B5B6823F400327B68B0
:10169C009B68214913434B601F4B5B6823F4741206
:1016AC007B68196A7B685B6A0B431B4913434B606D
:1016BC001B4B01221A60FFF771FA386108E0FFF743
:1016CC006DFA02463B69D31A022B01D903233DE084
:1016DC00114B1B6803F00073002BF0D035E0104B5E
:1016EC0000221A60FFF75AFA386108E0FFF756FA41
:1016FC0002463B69D31A022B01D9032326E0064B81
:10170C001B6803F00073002BF0D11EE07B68DB69D3
:10171C00012B07D1012319E000100240007000409A
:10172C00600042420B4B5B68FB60FB6803F4803249
:10173C007B681B6A9A4206D1FB6803F470127B68C3
:10174C005B6A9A4201D0012300E000231846183747
:10175C00BD4680BD0010024080B584B000AF7860FB
:10176C0039607B68002B01D10123D0E06A4B1B68E8
:10177C0003F007033A689A4210D9674B1B6823F0B1
:10178C00070265493B6813430B60634B1B6803F00E
:10179C0007033A689A4201D00123B8E07B681B68C2
:1017AC0003F00203002B20D07B681B6803F00403BA
:1017BC00002B05D0594B5B68584A43F4E0635360E7
:1017CC007B681B6803F00803002B05D0534B5B6848
:1017DC00524A43F460535360504B5B6823F0F00261
:1017EC007B689B684D4913434B607B681B6803F017
:1017FC000103002B40D07B685B68012B07D1474B62
:10180C001B6803F40033002B15D101237FE07B68A8
:10181C005B68022B07D1414B1B6803F00073002B54
:10182C0009D1012373E03D4B1B6803F00203002B2D
:10183C0001D101236BE0394B5B6823F003027B6819
:10184C005B68364913434B60FFF7A8F9F8600AE070
:10185C00FFF7A4F90246FB68D31A41F2883293428F
:10186C0001D9032353E02D4B5B6803F00C027B681A
:10187C005B689B009A42EBD1274B1B6803F0070374
:10188C003A689A4210D2244B1B6823F00702224973
:10189C003B6813430B60204B1B6803F007033A684B
:1018AC009A4201D0012332E07B681B6803F00403E9
:1018BC00002B08D0194B5B6823F4E0627B68DB6873
:1018CC00164913434B607B681B6803F00803002B1D
:1018DC0009D0124B5B6823F460527B681B69DB00F8
:1018EC000E4913434B6000F021F802460B4B5B682A
:1018FC001B0903F00F030A49CB5C22FA03F3094AD4
:10190C001360094B1B681846FFF706F900231846AD
:10191C001037BD4680BD00BF0020024000100240C1
:10192C003C2A0008000000200400002090B48AB07B
:10193C0000AF294B3C1D0FCB84E80F0040F2012374
:10194C003B800023FB610023BB6100237B620023EF
:10195C007B6100233B62214B5B68FB61FB6903F0FD
:10196C000C03042B02D0082B03D02BE01C4B3B6246
:10197C002BE0FB699B0C03F00F0328333B4413F85B
:10198C00243C7B61FB6903F48033002B12D0134B96
:10199C005B685B0C03F0010328333B4413F8283CD1
:1019AC00BB617B690E4A03FB02F2BB69B2FBF3F32A
:1019BC007B6204E07B690B4A02FB03F37B627B6A6C
:1019CC003B6202E0064B3B6200BF3B6A184628377D
:1019DC00BD4690BC704700BF2C2A00080010024086
:1019EC0000127A0000093D0080B400AF024B1B6866
:1019FC001846BD4680BC70470000002080B500AF83
:101A0C00FFF7F2FF0246054B5B681B0A03F0070366
:101A1C000349CB5C22FA03F3184680BD0010024048
:101A2C004C2A000880B500AFFFF7DEFF0246054BDD
:101A3C005B68DB0A03F007030349CB5C22FA03F370
:101A4C00184680BD001002404C2A000880B485B0B6
:101A5C0000AF78600A4B1B680A4AA2FB03235B0A9F
:101A6C007A6802FB03F3FB6000BFFB685A1EFA6046
:101A7C00002BF9D100BF00BF1437BD4680BC7047A6
:101A8C0000000020D34D621080B582B000AF7860AA
:101A9C007B68002B01D1012341E07B6893F83D303A
:101AAC00DBB2002B06D17B68002283F83C207868DF
:101ABC00FEF73EFF7B68022283F83D207B681A68A4
:101ACC007B6804331946104600F01EFA7B6801222D
:101ADC0083F846207B68012283F83E207B68012234
:101AEC0083F83F207B68012283F840207B68012229
:101AFC0083F841207B68012283F842207B68012215
:101B0C0083F843207B68012283F844207B68012200
:101B1C0083F845207B68012283F83D20002318467A
:101B2C000837BD4680BD80B582B000AF78607B6859
:101B3C001B681B6903F00203022B22D17B681B6814
:101B4C00DB6803F00203022B1BD17B681B686FF070
:101B5C0002021A617B6801221A777B681B689B69F9
:101B6C0003F00303002B03D0786800F0B1F905E013
:101B7C00786800F0A4F9786800F0B3F97B6800226B
:101B8C001A777B681B681B6903F00403042B22D1B2
:101B9C007B681B68DB6803F00403042B1BD17B6898
:101BAC001B686FF004021A617B6802221A777B684B
:101BBC001B689B6903F44073002B03D0786800F01A
:101BCC0087F905E0786800F07AF9786800F089F90F
:101BDC007B6800221A777B681B681B6903F008037B
:101BEC00082B22D17B681B68DB6803F00803082BE9
:101BFC001BD17B681B686FF008021A617B6804229A
:101C0C001A777B681B68DB6903F00303002B03D096
:101C1C00786800F05DF905E0786800F050F97868B4
:101C2C0000F05FF97B6800221A777B681B681B69E0
:101C3C0003F01003102B22D17B681B68DB6803F0C8
:101C4C001003102B1BD17B681B686FF010021A61FC
:101C5C007B6808221A777B681B68DB6903F4407386
:101C6C00002B03D0786800F033F905E0786800F0B9
:101C7C0026F9786800F035F97B6800221A777B68C2
:101C8C001B681B6903F00103012B0ED17B681B68D9
:101C9C00DB6803F00103012B07D17B681B686FF035
:101CAC0001021A617868FEF78DFB7B681B681B6963
:101CBC0003F08003802B0ED17B681B68DB6803F07C
:101CCC008003802B07D17B681B686FF080021A6140
:101CDC00786800F068FA7B681B681B6903F04003A6
:101CEC00402B0ED17B681B68DB6803F04003402B54
:101CFC0007D17B681B686FF040021A61786800F0AE
:101D0C00F9F87B681B681B6903F02003202B0ED1AC
:101D1C007B681B68DB6803F02003202B07D17B68F2
:101D2C001B686FF020021A61786800F033FA00BF6C
:101D3C000837BD4680BD80B584B000AF786039608F
:101D4C007B6893F83C30012B01D10223B3E07B6814
:101D5C00012283F83C207B68022283F83D207B68BB
:101D6C001B689B68FB60FB6823F07703FB60FB68D8
:101D7C0023F47F43FB607B681B68FA689A603B68BE
:101D8C001B68B3F5005F3ED0B3F5005F00F28780AF
:101D9C00B3F5805F00F08580B3F5805F7FD8702B42
:101DAC001AD0702B7BD8602B50D0602B77D8502B4F
:101DBC003CD0502B73D8402B58D0402B6FD8302BA5
:101DCC0064D0302B6BD8202B60D0202B67D8002B05
:101DDC005CD0102B5AD062E07B6818683B6899681D
:101DEC003B685A683B68DB6800F05DF97B681B68F0
:101DFC009B68FB60FB6843F07703FB607B681B68A8
:101E0C00FA689A604EE07B6818683B6899683B6892
:101E1C005A683B68DB6800F046F97B681B689A6877
:101E2C007B681B6842F480429A603BE07B681868D0
:101E3C003B6859683B68DB681A4600F0BDF87B6864
:101E4C001B685021184600F014F92BE07B681868C9
:101E5C003B6859683B68DB681A4600F0DBF87B6826
:101E6C001B686021184600F004F91BE07B681868B9
:101E7C003B6859683B68DB681A4600F09DF87B6844
:101E8C001B684021184600F0F4F80BE07B681A68D8
:101E9C003B681B681946104600F0EBF802E000BFE7
:101EAC0000E000BF7B68012283F83D207B680022A4
:101EBC0083F83C20002318461037BD4680BD80B403
:101ECC0083B000AF786000BF0C37BD4680BC704754
:101EDC0080B483B000AF786000BF0C37BD4680BCC7
:101EEC00704780B483B000AF786000BF0C37BD463C
:101EFC0080BC704780B483B000AF786000BF0C37F3
:101F0C00BD4680BC7047000080B485B000AF7860DF
:101F1C0039607B681B68FB607B68254A934207D05D
:101F2C007B68B3F1804F03D07B68224A934208D17F
:101F3C00FB6823F07003FB603B685B68FA68134333
:101F4C00FB607B681A4A934207D07B68B3F1804FE1
:101F5C0003D07B68174A934208D1FB6823F4407383
:101F6C00FB603B68DB68FA681343FB60FB6823F09B
:101F7C0080023B685B691343FB607B68FA681A60FC
:101F8C003B689A687B68DA623B681A687B689A627D
:101F9C007B68074A934203D13B681A697B681A63D2
:101FAC007B6801225A6100BF1437BD4680BC704764
:101FBC00002C01400004004080B487B000AFF860F2
:101FCC00B9607A60FB681B6A7B61FB681B6A23F053
:101FDC000102FB681A62FB689B693B613B6923F059
:101FEC00F0033B617B681B013A6913433B617B69DE
:101FFC0023F00A037B617A69BB6813437B61FB683E
:10200C003A699A61FB687A691A6200BF1C37BD464F
:10201C0080BC704780B487B000AFF860B9607A605C
:10202C00FB681B6A23F01002FB681A62FB689B6951
:10203C007B61FB681B6A3B617B6923F470437B61AA
:10204C007B681B037A6913437B613B6923F0A00314
:10205C003B61BB681B013A6913433B61FB687A69BE
:10206C009A61FB683A691A6200BF1C37BD4680BC96
:10207C00704780B485B000AF786039607B689B682E
:10208C00FB60FB6823F07003FB603A68FB6813434A
:10209C0043F00703FB607B68FA689A6000BF143753
:1020AC00BD4680BC704780B487B000AFF860B960A3
:1020BC007A603B60FB689B687B617B6923F47F43A0
:1020CC007B613B681A027B681A43BB6813437A69CD
:1020DC0013437B61FB687A699A6000BF1C37BD466D
:1020EC0080BC704780B485B000AF786039607B6885
:1020FC0093F83C30012B01D1022341E07B68012293
:10210C0083F83C207B68022283F83D207B681B68A7
:10211C005B68FB607B681B689B68BB60FB6823F09B
:10212C007003FB603B681B68FA681343FB607B68B9
:10213C001B68FA685A607B681B68144A934209D082
:10214C007B681B68B3F1804F04D07B681B68104A16
:10215C0093420CD1BB6823F08003BB603B685B6887
:10216C00BA681343BB607B681B68BA689A607B686B
:10217C00012283F83D207B68002283F83C20002359
:10218C0018461437BD4680BC704700BF002C014078
:10219C000004004080B483B000AF786000BF0C37FF
:1021AC00BD4680BC704780B483B000AF786000BF80
:1021BC000C37BD4680BC704780B582B000AF7860EC
:1021CC007B68002B01D101233FE07B6893F83D3005
:1021DC00DBB2002B06D17B68002283F83C207868A8
:1021EC00FEF7CAFB7B68242283F83D207B681B68C2
:1021FC00DA687B681B6822F40052DA60786800F0B9
:10220C0049FB7B681B681A697B681B6822F4904247
:10221C001A617B681B685A697B681B6822F02A026A
:10222C005A617B681B68DA687B681B6842F4005251
:10223C00DA607B6800221A647B68202283F83D20D8
:10224C007B68202283F83E20002318460837BD46C1
:10225C0080BD000080B58AB000AF78607B681B68D9
:10226C001B687B627B681B68DB683B627B681B6856
:10227C005B69FB610023BB6100237B617B6A03F01C
:10228C000F03BB61BB69002B0DD17B6A03F02003EC
:10229C00002B08D03B6A03F02003002B03D0786896
:1022AC0000F04FFA7BE1BB69002B00F0B180FB69B9
:1022BC0003F00103002B05D13B6A03F49073002B50
:1022CC0000F0A6807B6A03F00103002B0AD03B6A66
:1022DC0003F48073002B05D07B681B6C43F0010268
:1022EC007B681A647B6A03F00403002B0AD0FB6939
:1022FC0003F00103002B05D07B681B6C43F002023A
:10230C007B681A647B6A03F00203002B0AD0FB691A
:10231C0003F00103002B05D07B681B6C43F0040217
:10232C007B681A647B6A03F00803002B0FD03B6AAE
:10233C0003F02003002B04D1FB6903F00103002BF5
:10234C0005D07B681B6C43F008027B681A647B68C1
:10235C001B6C002B00F01E817B6A03F02003002B0A
:10236C0007D03B6A03F02003002B02D0786800F002
:10237C00E8F97B681B685B6903F04003002B14BF12
:10238C0001230023DBB27B617B681B6C03F0080329
:10239C00002B02D17B69002B31D0786800F02AF930
:1023AC007B681B685B6903F04003002B23D07B68C0
:1023BC001B685A697B681B6822F040025A617B6873
:1023CC009B6B002B13D07B689B6B764A5A637B68A4
:1023DC009B6B1846FEF734FD0346002B16D07B682A
:1023EC009B6B5B6B7A68926B104698470EE0786833
:1023FC0000F0ECF80AE0786800F0E8F806E078689D
:10240C0000F0E4F87B6800221A64C3E000BFC1E06E
:10241C007B681B6B012B40F0A1807B6A03F01003DF
:10242C00002B00F09B803B6A03F01003002B00F0A4
:10243C0095800023FB607B681B681B68FB607B68D6
:10244C001B685B68FB60FB687B681B685B6903F05F
:10245C004003002B4ED07B689B6B1B685B683B82F8
:10246C003B8A002B00F098807B689B8D3A8A9A42BD
:10247C0080F092807B683A8ADA857B689B6B9B69DB
:10248C00202B2BD07B681B68DA687B681B6822F4D6
:10249C008072DA607B681B685A697B681B6822F063
:1024AC0001025A617B681B685A697B681B6822F0C1
:1024BC0040025A617B68202283F83E207B68002210
:1024CC001A637B681B68DA687B681B6822F0100251
:1024DC00DA607B689B6B1846FEF777FC7B689A8DFD
:1024EC007B68DB8D9BB2D31A9BB21946786800F0DF
:1024FC0076F851E07B689A8D7B68DB8D9BB2D31AA2
:10250C007B827B68DB8D9BB2002B47D07B8A002BB8
:10251C0044D07B681B68DA687B681B6822F4907275
:10252C00DA607B681B685A697B681B6822F00102C1
:10253C005A617B68202283F83E207B6800221A6354
:10254C007B681B68DA687B681B6822F01002DA6013
:10255C007B8A1946786800F042F81FE07B6A03F02A
:10256C008003002B08D03B6A03F08003002B03D0C0
:10257C00786800F07FF812E07B6A03F04003002BD0
:10258C000DD03B6A03F04003002B08D0786800F0B4
:10259C00C0F804E000BF02E000BF00E000BF283735
:1025AC00BD4680BD5926000880B483B000AF78606A
:1025BC0000BF0C37BD4680BC704780B483B000AF01
:1025CC00786000BF0C37BD4680BC704780B483B0C8
:1025DC0000AF786000BF0C37BD4680BC704780B43C
:1025EC0083B000AF78600B467B8000BF0C37BD46D4
:1025FC0080BC704780B483B000AF78607B681B6888
:10260C00DA687B681B6822F49072DA607B681B685E
:10261C005A697B681B6822F001025A617B681B6B4C
:10262C00012B07D17B681B68DA687B681B6822F07A
:10263C001002DA607B68202283F83E207B6800223F
:10264C001A6300BF0C37BD4680BC704780B584B0A0
:10265C0000AF78607B685B6AFB60FB680022DA8500
:10266C00FB680022DA84F868FFF7B0FF00BF103770
:10267C00BD4680BD80B485B000AF78607B6893F8B0
:10268C003D30DBB2212B3ED17B689B68B3F5805F7C
:10269C0014D17B681B69002B10D17B681B6AFB6013
:1026AC00FB681B881A467B681B68C2F308025A60D9
:1026BC007B681B6A9A1C7B681A6208E07B681B6A41
:1026CC00591C7A6811621A787B681B685A607B689F
:1026DC00DB8C9BB2013B9BB27A681946D184002BF0
:1026EC000FD17B681B68DA687B681B6822F080025C
:1026FC00DA607B681B68DA687B681B6842F0400212
:10270C00DA60002300E0022318461437BD4680BC73
:10271C00704780B582B000AF78607B681B68DA6860
:10272C007B681B6822F04002DA607B68202283F809
:10273C003D207868FFF738FF002318460837BD4660
:10274C0080BD80B586B000AF78607B6893F83E3072
:10275C00DBB2222B40F099807B689B68B3F5805FDD
:10276C0017D17B681B69002B13D100237B617B681D
:10277C009B6A3B617B681B685B689BB2C3F3080375
:10278C009AB23B691A807B689B6A9A1C7B689A6236
:10279C0026E07B689B6A7B6100233B617B689B68BE
:1027AC00B3F5805F07D07B689B68002B0AD17B68F0
:1027BC001B69002B06D17B681B685B68DAB27B69EE
:1027CC001A7008E07B681B685B68DBB203F07F0360
:1027DC00DAB27B691A707B689B6A5A1C7B689A62B6
:1027EC007B68DB8D9BB2013B9BB27A681946D18525
:1027FC00002B48D17B681B68DA687B681B6822F069
:10280C002002DA607B681B68DA687B681B6822F43C
:10281C008072DA607B681B685A697B681B6822F0DF
:10282C0001025A617B68202283F83E207B681B6B77
:10283C00012B23D17B6800221A637B681B68DA6842
:10284C007B681B6822F01002DA607B681B681B68CF
:10285C0003F01003102B0AD10023FB607B681B686C
:10286C001B68FB607B681B685B68FB60FB687B68B4
:10287C009B8D19467868FFF7B2FE02E07868FFF787
:10288C009CFE002302E0002300E0022318461837C8
:10289C00BD4680BD80B584B000AF78607B681B6896
:1028AC001B6923F440517B68DA687B681B680A4318
:1028BC001A617B689A687B681B691A437B685B6941
:1028CC001343BB607B681B68DB6823F4B05323F0B5
:1028DC000C037A681268B9680B43D3607B681B6879
:1028EC005B6923F440717B689A697B681B680A43B7
:1028FC005A617B681B682C4A934203D1FFF792F80C
:10290C00F86002E0FFF77AF8F860FA6813469B006B
:10291C0013449A001A447B685B689B00B2FBF3F388
:10292C00224AA2FB03235B091901FA6813469B0098
:10293C0013449A001A447B685B689B00B2FBF3F269
:10294C001A4BA3FB02035B09642000FB03F3D31AAD
:10295C001B013233154AA2FB03235B0903F0F0037E
:10296C001944FA6813469B0013449A001A447B6876
:10297C005B689B00B2FBF3F20C4BA3FB02035B09FD
:10298C00642000FB03F3D31A1B013233074AA2FB6A
:10299C0003235B0903F00F027B681B680A449A60EF
:1029AC0000BF1037BD4680BD003801401F85EB517C
:1029BC0070B500260C4D0D4C641BA410A64209D119
:1029CC0000F022F800260A4D0A4C641BA410A64203
:1029DC0005D170BD55F8043B98470136EEE755F824
:1029EC00043B98470136F2E7542A0008542A0008A1
:1029FC00542A0008582A000803460244934200D186
:102A0C00704703F8011BF9E7F8B500BFF8BC08BC28
:102A1C009E467047F8B500BFF8BC08BC9E46704790
:102A2C0002030405060708090A0B0C0D0E0F101003
:102A3C000000000000000000010203040607080962
:082A4C00000000000102030478
:042A54003101000844
:042A58000D01000864
:0C2A5C000024F400100000000100000045
:0400000508000AAD38
:00000001FF
